{
  "_format": "hh-sol-artifact-1",
  "contractName": "MultiLocationTest",
  "sourceName": "contracts/test-helpers/MultiLocationTest.sol",
  "abi": [
    {
      "inputs": [],
      "name": "ACALA",
      "outputs": [
        {
          "internalType": "uint32",
          "name": "",
          "type": "uint32"
        }
      ],
      "stateMutability": "view",
      "type": "function"
    },
    {
      "inputs": [],
      "name": "ASSET_HUB",
      "outputs": [
        {
          "internalType": "uint32",
          "name": "",
          "type": "uint32"
        }
      ],
      "stateMutability": "view",
      "type": "function"
    },
    {
      "inputs": [],
      "name": "ASTAR",
      "outputs": [
        {
          "internalType": "uint32",
          "name": "",
          "type": "uint32"
        }
      ],
      "stateMutability": "view",
      "type": "function"
    },
    {
      "inputs": [],
      "name": "BIFROST",
      "outputs": [
        {
          "internalType": "uint32",
          "name": "",
          "type": "uint32"
        }
      ],
      "stateMutability": "view",
      "type": "function"
    },
    {
      "inputs": [],
      "name": "BRIDGE_HUB",
      "outputs": [
        {
          "internalType": "uint32",
          "name": "",
          "type": "uint32"
        }
      ],
      "stateMutability": "view",
      "type": "function"
    },
    {
      "inputs": [],
      "name": "HYDRATION",
      "outputs": [
        {
          "internalType": "uint32",
          "name": "",
          "type": "uint32"
        }
      ],
      "stateMutability": "view",
      "type": "function"
    },
    {
      "inputs": [],
      "name": "MOONBEAM",
      "outputs": [
        {
          "internalType": "uint32",
          "name": "",
          "type": "uint32"
        }
      ],
      "stateMutability": "view",
      "type": "function"
    },
    {
      "inputs": [
        {
          "internalType": "bytes32",
          "name": "accountId",
          "type": "bytes32"
        }
      ],
      "name": "testAccountId32",
      "outputs": [
        {
          "internalType": "bytes",
          "name": "",
          "type": "bytes"
        }
      ],
      "stateMutability": "pure",
      "type": "function"
    },
    {
      "inputs": [
        {
          "internalType": "address",
          "name": "account",
          "type": "address"
        }
      ],
      "name": "testAccountKey20",
      "outputs": [
        {
          "internalType": "bytes",
          "name": "",
          "type": "bytes"
        }
      ],
      "stateMutability": "pure",
      "type": "function"
    },
    {
      "inputs": [
        {
          "internalType": "uint128",
          "name": "assetId",
          "type": "uint128"
        }
      ],
      "name": "testAssetById",
      "outputs": [
        {
          "internalType": "bytes",
          "name": "",
          "type": "bytes"
        }
      ],
      "stateMutability": "pure",
      "type": "function"
    },
    {
      "inputs": [
        {
          "internalType": "address",
          "name": "token",
          "type": "address"
        }
      ],
      "name": "testAssetLocation",
      "outputs": [
        {
          "internalType": "bytes",
          "name": "",
          "type": "bytes"
        }
      ],
      "stateMutability": "pure",
      "type": "function"
    },
    {
      "inputs": [],
      "name": "testNativeAsset",
      "outputs": [
        {
          "internalType": "bytes",
          "name": "",
          "type": "bytes"
        }
      ],
      "stateMutability": "pure",
      "type": "function"
    },
    {
      "inputs": [
        {
          "internalType": "uint32",
          "name": "paraId",
          "type": "uint32"
        }
      ],
      "name": "testParachain",
      "outputs": [
        {
          "internalType": "bytes",
          "name": "",
          "type": "bytes"
        }
      ],
      "stateMutability": "pure",
      "type": "function"
    }
  ],
  "bytecode": "0x6080604052348015600f57600080fd5b5061139e8061001f6000396000f3fe608060405234801561001057600080fd5b50600436106100cf5760003560e01c8063669e00cc1161008c578063cea8513111610066578063cea851311461022a578063cffee6d914610248578063e060d71414610266578063fbe7542714610296576100cf565b8063669e00cc146101be5780638888c44b146101dc57806392484ab81461020c576100cf565b8063151fee18146100d45780631bd662a2146101045780635008e14d1461012257806350ee32ed14610152578063512be726146101825780635d4edca7146101a0575b600080fd5b6100ee60048036038101906100e99190610b5f565b6102b4565b6040516100fb9190610c1c565b60405180910390f35b61010c6102c6565b6040516101199190610c5d565b60405180910390f35b61013c60048036038101906101379190610cd6565b6102cc565b6040516101499190610c1c565b60405180910390f35b61016c60048036038101906101679190610d4b565b6102de565b6040516101799190610c1c565b60405180910390f35b61018a6102f0565b6040516101979190610c5d565b60405180910390f35b6101a86102f6565b6040516101b59190610c5d565b60405180910390f35b6101c66102fc565b6040516101d39190610c1c565b60405180910390f35b6101f660048036038101906101f19190610cd6565b61030b565b6040516102039190610c1c565b60405180910390f35b61021461031d565b6040516102219190610c5d565b60405180910390f35b610232610323565b60405161023f9190610c5d565b60405180910390f35b610250610329565b60405161025d9190610c5d565b60405180910390f35b610280600480360381019061027b9190610da4565b61032f565b60405161028d9190610c1c565b60405180910390f35b61029e610341565b6040516102ab9190610c5d565b60405180910390f35b60606102bf82610347565b9050919050565b6107d481565b60606102d7826103a6565b9050919050565b60606102e9826103b7565b9050919050565b6107d081565b6103ea81565b606061030661041e565b905090565b606061031682610472565b9050919050565b6107ee81565b6107d681565b6103e881565b606061033a826104d1565b9050919050565b6107f281565b60606000610355600061053e565b905060008360405160200161036a9190610e75565b6040516020818303038152906040529050818160405160200161038e929190610eed565b60405160208183030381529060405292505050919050565b60606103b061041e565b9050919050565b606060006103c5600061053e565b905060006103d2846105e2565b6040516020016103e29190611041565b60405160208183030381529060405290508181604051602001610406929190610eed565b60405160208183030381529060405292505050919050565b6060600061042c600061053e565b9050600060405180604001604052806001815260200160008152509050818160405160200161045c929190610eed565b6040516020818303038152906040529250505090565b60606000610480600061053e565b90506000836040516020016104959190611118565b604051602081830303815290604052905081816040516020016104b9929190610eed565b60405160208183030381529060405292505050919050565b606060006104df600161053e565b905060006104f28463ffffffff166106c0565b6040516020016105029190611154565b60405160208183030381529060405290508181604051602001610526929190610eed565b60405160208183030381529060405292505050919050565b60606000600167ffffffffffffffff81111561055d5761055c611181565b5b6040519080825280601f01601f19166020018201604052801561058f5781602001600182028036833780820191505090505b5090508260f81b816000815181106105aa576105a96111b0565b5b60200101907effffffffffffffffffffffffffffffffffffffffffffffffffffffffffffff1916908160001a90535080915050919050565b60606000601067ffffffffffffffff81111561060157610600611181565b5b6040519080825280601f01601f1916602001820160405280156106335781602001600182028036833780820191505090505b50905060005b60108110156106b65760088161064f9190611218565b846fffffffffffffffffffffffffffffffff16901c60f81b82828151811061067a576106796111b0565b5b60200101907effffffffffffffffffffffffffffffffffffffffffffffffffffffffffffff1916908160001a9053508080600101915050610639565b5080915050919050565b606060408210156106f657600282901b6040516020016106e0919061129d565b6040516020818303038152906040529050610988565b6140008210156107fe5760006001600284901b1790506000600267ffffffffffffffff81111561072957610728611181565b5b6040519080825280601f01601f19166020018201604052801561075b5781602001600182028036833780820191505090505b5090508160f81b81600081518110610776576107756111b0565b5b60200101907effffffffffffffffffffffffffffffffffffffffffffffffffffffffffffff1916908160001a90535060088261ffff16901c60f81b816001815181106107c5576107c46111b0565b5b60200101907effffffffffffffffffffffffffffffffffffffffffffffffffffffffffffff1916908160001a9053508092505050610988565b634000000082101561082657600060028084901b17905061081e8161098d565b915050610988565b6000808390505b6000811115610850578180610841906112b8565b925050600881901c905061082d565b600060018361085f9190611300565b67ffffffffffffffff81111561087857610877611181565b5b6040519080825280601f01601f1916602001820160405280156108aa5781602001600182028036833780820191505090505b509050600360026004856108be9190611334565b901b1760f81b816000815181106108d8576108d76111b0565b5b60200101907effffffffffffffffffffffffffffffffffffffffffffffffffffffffffffff1916908160001a90535060005b838110156109805760088161091f9190611218565b86901c60f81b826001836109339190611300565b81518110610944576109436111b0565b5b60200101907effffffffffffffffffffffffffffffffffffffffffffffffffffffffffffff1916908160001a905350808060010191505061090a565b508093505050505b919050565b60606000600467ffffffffffffffff8111156109ac576109ab611181565b5b6040519080825280601f01601f1916602001820160405280156109de5781602001600182028036833780820191505090505b5090508260f81b816000815181106109f9576109f86111b0565b5b60200101907effffffffffffffffffffffffffffffffffffffffffffffffffffffffffffff1916908160001a90535060088363ffffffff16901c60f81b81600181518110610a4a57610a496111b0565b5b60200101907effffffffffffffffffffffffffffffffffffffffffffffffffffffffffffff1916908160001a90535060108363ffffffff16901c60f81b81600281518110610a9b57610a9a6111b0565b5b60200101907effffffffffffffffffffffffffffffffffffffffffffffffffffffffffffff1916908160001a90535060188363ffffffff16901c60f81b81600381518110610aec57610aeb6111b0565b5b60200101907effffffffffffffffffffffffffffffffffffffffffffffffffffffffffffff1916908160001a90535080915050919050565b600080fd5b6000819050919050565b610b3c81610b29565b8114610b4757600080fd5b50565b600081359050610b5981610b33565b92915050565b600060208284031215610b7557610b74610b24565b5b6000610b8384828501610b4a565b91505092915050565b600081519050919050565b600082825260208201905092915050565b60005b83811015610bc6578082015181840152602081019050610bab565b60008484015250505050565b6000601f19601f8301169050919050565b6000610bee82610b8c565b610bf88185610b97565b9350610c08818560208601610ba8565b610c1181610bd2565b840191505092915050565b60006020820190508181036000830152610c368184610be3565b905092915050565b600063ffffffff82169050919050565b610c5781610c3e565b82525050565b6000602082019050610c726000830184610c4e565b92915050565b600073ffffffffffffffffffffffffffffffffffffffff82169050919050565b6000610ca382610c78565b9050919050565b610cb381610c98565b8114610cbe57600080fd5b50565b600081359050610cd081610caa565b92915050565b600060208284031215610cec57610ceb610b24565b5b6000610cfa84828501610cc1565b91505092915050565b60006fffffffffffffffffffffffffffffffff82169050919050565b610d2881610d03565b8114610d3357600080fd5b50565b600081359050610d4581610d1f565b92915050565b600060208284031215610d6157610d60610b24565b5b6000610d6f84828501610d36565b91505092915050565b610d8181610c3e565b8114610d8c57600080fd5b50565b600081359050610d9e81610d78565b92915050565b600060208284031215610dba57610db9610b24565b5b6000610dc884828501610d8f565b91505092915050565b600081905092915050565b7f0100000000000000000000000000000000000000000000000000000000000000600082015250565b6000610e12600183610dd1565b9150610e1d82610ddc565b600182019050919050565b6000819050919050565b610e43610e3e82610b29565b610e28565b82525050565b60008082015250565b6000610e5f600183610dd1565b9150610e6a82610e49565b600182019050919050565b6000610e8082610e05565b9150610e8b82610e05565b9150610e978284610e32565b602082019150610ea682610e52565b915081905092915050565b600081905092915050565b6000610ec782610b8c565b610ed18185610eb1565b9350610ee1818560208601610ba8565b80840191505092915050565b6000610ef98285610ebc565b9150610f058284610ebc565b91508190509392505050565b7f0200000000000000000000000000000000000000000000000000000000000000600082015250565b6000610f47600183610dd1565b9150610f5282610f11565b600182019050919050565b7f0400000000000000000000000000000000000000000000000000000000000000600082015250565b6000610f93600183610dd1565b9150610f9e82610f5d565b600182019050919050565b7f3200000000000000000000000000000000000000000000000000000000000000600082015250565b6000610fdf600183610dd1565b9150610fea82610fa9565b600182019050919050565b7f0700000000000000000000000000000000000000000000000000000000000000600082015250565b600061102b600183610dd1565b915061103682610ff5565b600182019050919050565b600061104c82610f3a565b915061105782610f86565b915061106282610fd2565b915061106d8261101e565b91506110798284610ebc565b915081905092915050565b7f0300000000000000000000000000000000000000000000000000000000000000600082015250565b60006110ba600183610dd1565b91506110c582611084565b600182019050919050565b60008160601b9050919050565b60006110e8826110d0565b9050919050565b60006110fa826110dd565b9050919050565b61111261110d82610c98565b6110ef565b82525050565b600061112382610e05565b915061112e826110ad565b915061113a8284611101565b60148201915061114982610e52565b915081905092915050565b600061115f82610e05565b915061116a82610e52565b91506111768284610ebc565b915081905092915050565b7f4e487b7100000000000000000000000000000000000000000000000000000000600052604160045260246000fd5b7f4e487b7100000000000000000000000000000000000000000000000000000000600052603260045260246000fd5b6000819050919050565b7f4e487b7100000000000000000000000000000000000000000000000000000000600052601160045260246000fd5b6000611223826111df565b915061122e836111df565b925082820261123c816111df565b91508282048414831517611253576112526111e9565b5b5092915050565b600060ff82169050919050565b60008160f81b9050919050565b600061127f82611267565b9050919050565b6112976112928261125a565b611274565b82525050565b60006112a98284611286565b60018201915081905092915050565b60006112c3826111df565b91507fffffffffffffffffffffffffffffffffffffffffffffffffffffffffffffffff82036112f5576112f46111e9565b5b600182019050919050565b600061130b826111df565b9150611316836111df565b925082820190508082111561132e5761132d6111e9565b5b92915050565b600061133f826111df565b915061134a836111df565b9250828203905081811115611362576113616111e9565b5b9291505056fea264697066735822122028389252b86ab4c3b74be9c611d0a50d618ec09629b4d531067a24abb5cf685964736f6c634300081c0033",
  "linkReferences": {},
  "deployedLinkReferences": {}
}