{"contracts/XCMBridge.sol":{"XCMBridge":{"abi":[{"inputs":[],"stateMutability":"nonpayable","type":"constructor"},{"inputs":[],"name":"NotOwner","type":"error"},{"inputs":[],"name":"ReentrantCall","type":"error"},{"inputs":[],"name":"ZeroAmount","type":"error"},{"inputs":[],"name":"ZeroRecipient","type":"error"},{"anonymous":false,"inputs":[{"indexed":true,"internalType":"uint32","name":"destinationParaId","type":"uint32"},{"indexed":false,"internalType":"uint64","name":"refTime","type":"uint64"},{"indexed":false,"internalType":"uint64","name":"proofSize","type":"uint64"},{"indexed":false,"internalType":"uint256","name":"feePas","type":"uint256"}],"name":"FeeEstimated","type":"event"},{"anonymous":false,"inputs":[{"indexed":true,"internalType":"address","name":"sender","type":"address"},{"indexed":true,"internalType":"uint32","name":"destinationParaId","type":"uint32"},{"indexed":false,"internalType":"address","name":"recipient","type":"address"},{"indexed":false,"internalType":"address","name":"token","type":"address"},{"indexed":false,"internalType":"uint256","name":"amount","type":"uint256"}],"name":"TransferInitiated","type":"event"},{"inputs":[{"internalType":"uint32","name":"destinationParaId","type":"uint32"},{"internalType":"address","name":"token","type":"address"},{"internalType":"uint256","name":"amount","type":"uint256"}],"name":"estimateFee","outputs":[{"internalType":"uint64","name":"refTime","type":"uint64"},{"internalType":"uint64","name":"proofSize","type":"uint64"},{"internalType":"uint256","name":"feePas","type":"uint256"}],"stateMutability":"view","type":"function"},{"inputs":[],"name":"getSupportedChains","outputs":[{"internalType":"uint32[]","name":"","type":"uint32[]"}],"stateMutability":"pure","type":"function"},{"inputs":[],"name":"owner","outputs":[{"internalType":"address","name":"","type":"address"}],"stateMutability":"view","type":"function"},{"inputs":[{"internalType":"uint32","name":"destinationParaId","type":"uint32"},{"internalType":"address","name":"recipient","type":"address"},{"internalType":"address","name":"token","type":"address"},{"internalType":"uint256","name":"amount","type":"uint256"}],"name":"transfer","outputs":[],"stateMutability":"nonpayable","type":"function"}],"evm":{"bytecode":{"linkReferences":{},"object":"6080604052348015600f57600080fd5b50336000806101000a81548173ffffffffffffffffffffffffffffffffffffffff021916908373ffffffffffffffffffffffffffffffffffffffff160217905550611d2a8061005f6000396000f3fe608060405234801561001057600080fd5b506004361061004c5760003560e01c80632a092d5a146100515780633ab4a1f8146100835780638da5cb5b1461009f578063c4bffe2b146100bd575b600080fd5b61006b6004803603810190610066919061125b565b6100db565b60405161007a939291906112e0565b60405180910390f35b61009d60048036038101906100989190611317565b61010e565b005b6100a7610295565b6040516100b4919061138d565b60405180910390f35b6100c56102b9565b6040516100d29190611466565b60405180910390f35b60008060008060006100ee888888610467565b915091508160000151826020015182945094509450505093509350939050565b600060149054906101000a900460ff1615610155576040517f37ed32e800000000000000000000000000000000000000000000000000000000815260040160405180910390fd5b6001600060146101000a81548160ff021916908315150217905550600081036101aa576040517f1f2a200500000000000000000000000000000000000000000000000000000000815260040160405180910390fd5b600073ffffffffffffffffffffffffffffffffffffffff168373ffffffffffffffffffffffffffffffffffffffff1603610210576040517fd27b444300000000000000000000000000000000000000000000000000000000815260040160405180910390fd5b61021c84848484610548565b8363ffffffff163373ffffffffffffffffffffffffffffffffffffffff167f3f5cab1bcea04cb38f44548d0e221c824bb2e92c08870e65c49a5205f26aaa1485858560405161026d93929190611488565b60405180910390a360008060146101000a81548160ff02191690831515021790555050505050565b60008054906101000a900473ffffffffffffffffffffffffffffffffffffffff1681565b60606000600767ffffffffffffffff8111156102d8576102d76114bf565b5b6040519080825280602002602001820160405280156103065781602001602082028036833780820191505090505b5090506103e8816000815181106103205761031f6114ee565b5b602002602001019063ffffffff16908163ffffffff16815250506103ea81600181518110610351576103506114ee565b5b602002602001019063ffffffff16908163ffffffff16815250506107f281600281518110610382576103816114ee565b5b602002602001019063ffffffff16908163ffffffff16815250506107d4816003815181106103b3576103b26114ee565b5b602002602001019063ffffffff16908163ffffffff16815250506107d6816004815181106103e4576103e36114ee565b5b602002602001019063ffffffff16908163ffffffff16815250506107d081600581518110610415576104146114ee565b5b602002602001019063ffffffff16908163ffffffff16815250506107ee81600681518110610446576104456114ee565b5b602002602001019063ffffffff16908163ffffffff16815250508091505090565b61046f61114e565b60006fffffffffffffffffffffffffffffffff80168311156104c6576040517f08c379a00000000000000000000000000000000000000000000000000000000081526004016104bd9061157a565b60405180910390fd5b60006104d185610653565b905060006104df6000610664565b90506000600a866104f091906115f8565b9050620f4240816fffffffffffffffffffffffffffffffff16101561051657620f424090505b6000610524848884866106c3565b905061052f8161075e565b955061053a816107ef565b945050505050935093915050565b6000811161058b576040517f08c379a000000000000000000000000000000000000000000000000000000000815260040161058290611675565b60405180910390fd5b6fffffffffffffffffffffffffffffffff80168111156105e0576040517f08c379a00000000000000000000000000000000000000000000000000000000081526004016105d79061157a565b60405180910390fd5b60006105eb83610653565b905060006105f885610664565b90506000600a8461060991906115f8565b9050620f4240816fffffffffffffffffffffffffffffffff16101561062f57620f424090505b600061063d848684866106c3565b90506106488161086d565b505050505050505050565b606061065d61090b565b9050919050565b60606000610672600061095f565b905060008360405160200161068791906117ac565b604051602081830303815290604052905081816040516020016106ab929190611859565b60405160208183030381529060405292505050919050565b606060006106d18686610a03565b905060006106dd610ace565b905060006106eb8887610afe565b905060006106f886610bb7565b905060006107066004610c28565b8585858560405160200161071e95949392919061187d565b60405160208183030381529060405290508060405160200161074091906118c8565b60405160208183030381529060405295505050505050949350505050565b61076661114e565b6000620a000090508073ffffffffffffffffffffffffffffffffffffffff166347400c23846040518263ffffffff1660e01b81526004016107a79190611945565b6040805180830381865afa1580156107c3573d6000803e3d6000fd5b505050506040513d601f19601f820116820180604052508101906107e79190611a34565b915050919050565b6000806107fb8361075e565b90506000633b9aca006064836000015167ffffffffffffffff1661081f9190611a61565b61082991906115f8565b90506000610400600a846020015167ffffffffffffffff1661084b9190611a61565b61085591906115f8565b905080826108639190611aa3565b9350505050919050565b6000806108798361075e565b90506000610888826014610ef5565b90506000620a000090508073ffffffffffffffffffffffffffffffffffffffff1663d3b7e04d86846040518363ffffffff1660e01b81526004016108cd929190611b15565b600060405180830381600087803b1580156108e757600080fd5b505af11580156108fb573d6000803e3d6000fd5b5050505060019350505050919050565b60606000610919600061095f565b90506000604051806040016040528060018152602001600081525090508181604051602001610949929190611859565b6040516020818303038152906040529250505090565b60606000600167ffffffffffffffff81111561097e5761097d6114bf565b5b6040519080825280601f01601f1916602001820160405280156109b05781602001600182028036833780820191505090505b5090508260f81b816000815181106109cb576109ca6114ee565b5b60200101907effffffffffffffffffffffffffffffffffffffffffffffffffffffffffffff1916908160001a90535080915050919050565b60606000610a22836fffffffffffffffffffffffffffffffff16610c28565b604051602001610a329190611b45565b604051602081830303815290604052905060008482604051602001610a58929190611b67565b60405160208183030381529060405290506000610a756001610c28565b82604051602001610a87929190611859565b6040516020818303038152906040529050610aa2600461095f565b81604051602001610ab4929190611859565b604051602081830303815290604052935050505092915050565b6060610ada600d61095f565b604051602001610aea9190611b96565b604051602081830303815290604052905090565b60606000610b1d836fffffffffffffffffffffffffffffffff16610c28565b604051602001610b2d9190611b45565b604051602081830303815290604052905060008482604051602001610b53929190611b67565b6040516020818303038152906040529050600060405180604001604052806001815260200160008152509050610b89600861095f565b8282604051602001610b9d93929190611bad565b604051602081830303815290604052935050505092915050565b606060006040518060400160405280600181526020017f01000000000000000000000000000000000000000000000000000000000000008152509050610bfd601261095f565b8184604051602001610c1193929190611bad565b604051602081830303815290604052915050919050565b60606040821015610c5e57600282901b604051602001610c489190611c21565b6040516020818303038152906040529050610ef0565b614000821015610d665760006001600284901b1790506000600267ffffffffffffffff811115610c9157610c906114bf565b5b6040519080825280601f01601f191660200182016040528015610cc35781602001600182028036833780820191505090505b5090508160f81b81600081518110610cde57610cdd6114ee565b5b60200101907effffffffffffffffffffffffffffffffffffffffffffffffffffffffffffff1916908160001a90535060088261ffff16901c60f81b81600181518110610d2d57610d2c6114ee565b5b60200101907effffffffffffffffffffffffffffffffffffffffffffffffffffffffffffff1916908160001a9053508092505050610ef0565b6340000000821015610d8e57600060028084901b179050610d8681610fb7565b915050610ef0565b6000808390505b6000811115610db8578180610da990611c3c565b925050600881901c9050610d95565b6000600183610dc79190611aa3565b67ffffffffffffffff811115610de057610ddf6114bf565b5b6040519080825280601f01601f191660200182016040528015610e125781602001600182028036833780820191505090505b50905060036002600485610e269190611c84565b901b1760f81b81600081518110610e4057610e3f6114ee565b5b60200101907effffffffffffffffffffffffffffffffffffffffffffffffffffffffffffff1916908160001a90535060005b83811015610ee857600881610e879190611a61565b86901c60f81b82600183610e9b9190611aa3565b81518110610eac57610eab6114ee565b5b60200101907effffffffffffffffffffffffffffffffffffffffffffffffffffffffffffff1916908160001a9053508080600101915050610e72565b508093505050505b919050565b610efd61114e565b610f0561114e565b606483856000015167ffffffffffffffff16610f219190611a61565b610f2b91906115f8565b8460000151610f3a9190611cb8565b816000019067ffffffffffffffff16908167ffffffffffffffff1681525050606483856020015167ffffffffffffffff16610f759190611a61565b610f7f91906115f8565b8460200151610f8e9190611cb8565b816020019067ffffffffffffffff16908167ffffffffffffffff16815250508091505092915050565b60606000600467ffffffffffffffff811115610fd657610fd56114bf565b5b6040519080825280601f01601f1916602001820160405280156110085781602001600182028036833780820191505090505b5090508260f81b81600081518110611023576110226114ee565b5b60200101907effffffffffffffffffffffffffffffffffffffffffffffffffffffffffffff1916908160001a90535060088363ffffffff16901c60f81b81600181518110611074576110736114ee565b5b60200101907effffffffffffffffffffffffffffffffffffffffffffffffffffffffffffff1916908160001a90535060108363ffffffff16901c60f81b816002815181106110c5576110c46114ee565b5b60200101907effffffffffffffffffffffffffffffffffffffffffffffffffffffffffffff1916908160001a90535060188363ffffffff16901c60f81b81600381518110611116576111156114ee565b5b60200101907effffffffffffffffffffffffffffffffffffffffffffffffffffffffffffff1916908160001a90535080915050919050565b6040518060400160405280600067ffffffffffffffff168152602001600067ffffffffffffffff1681525090565b6000604051905090565b600080fd5b600063ffffffff82169050919050565b6111a48161118b565b81146111af57600080fd5b50565b6000813590506111c18161119b565b92915050565b600073ffffffffffffffffffffffffffffffffffffffff82169050919050565b60006111f2826111c7565b9050919050565b611202816111e7565b811461120d57600080fd5b50565b60008135905061121f816111f9565b92915050565b6000819050919050565b61123881611225565b811461124357600080fd5b50565b6000813590506112558161122f565b92915050565b60008060006060848603121561127457611273611186565b5b6000611282868287016111b2565b935050602061129386828701611210565b92505060406112a486828701611246565b9150509250925092565b600067ffffffffffffffff82169050919050565b6112cb816112ae565b82525050565b6112da81611225565b82525050565b60006060820190506112f560008301866112c2565b61130260208301856112c2565b61130f60408301846112d1565b949350505050565b6000806000806080858703121561133157611330611186565b5b600061133f878288016111b2565b945050602061135087828801611210565b935050604061136187828801611210565b925050606061137287828801611246565b91505092959194509250565b611387816111e7565b82525050565b60006020820190506113a2600083018461137e565b92915050565b600081519050919050565b600082825260208201905092915050565b6000819050602082019050919050565b6113dd8161118b565b82525050565b60006113ef83836113d4565b60208301905092915050565b6000602082019050919050565b6000611413826113a8565b61141d81856113b3565b9350611428836113c4565b8060005b8381101561145957815161144088826113e3565b975061144b836113fb565b92505060018101905061142c565b5085935050505092915050565b600060208201905081810360008301526114808184611408565b905092915050565b600060608201905061149d600083018661137e565b6114aa602083018561137e565b6114b760408301846112d1565b949350505050565b7f4e487b7100000000000000000000000000000000000000000000000000000000600052604160045260246000fd5b7f4e487b7100000000000000000000000000000000000000000000000000000000600052603260045260246000fd5b600082825260208201905092915050565b7f416d6f756e7420746f6f206c6172676500000000000000000000000000000000600082015250565b600061156460108361151d565b915061156f8261152e565b602082019050919050565b6000602082019050818103600083015261159381611557565b9050919050565b7f4e487b7100000000000000000000000000000000000000000000000000000000600052601260045260246000fd5b7f4e487b7100000000000000000000000000000000000000000000000000000000600052601160045260246000fd5b600061160382611225565b915061160e83611225565b92508261161e5761161d61159a565b5b828204905092915050565b7f416d6f756e74206d7573742062652067726561746572207468616e2030000000600082015250565b600061165f601d8361151d565b915061166a82611629565b602082019050919050565b6000602082019050818103600083015261168e81611652565b9050919050565b600081905092915050565b7f0100000000000000000000000000000000000000000000000000000000000000600082015250565b60006116d6600183611695565b91506116e1826116a0565b600182019050919050565b7f0300000000000000000000000000000000000000000000000000000000000000600082015250565b6000611722600183611695565b915061172d826116ec565b600182019050919050565b60008160601b9050919050565b600061175082611738565b9050919050565b600061176282611745565b9050919050565b61177a611775826111e7565b611757565b82525050565b60008082015250565b6000611796600183611695565b91506117a182611780565b600182019050919050565b60006117b7826116c9565b91506117c282611715565b91506117ce8284611769565b6014820191506117dd82611789565b915081905092915050565b600081519050919050565b600081905092915050565b60005b8381101561181c578082015181840152602081019050611801565b60008484015250505050565b6000611833826117e8565b61183d81856117f3565b935061184d8185602086016117fe565b80840191505092915050565b60006118658285611828565b91506118718284611828565b91508190509392505050565b60006118898288611828565b91506118958287611828565b91506118a18286611828565b91506118ad8285611828565b91506118b98284611828565b91508190509695505050505050565b60006118d382611715565b91506118df8284611828565b915081905092915050565b600082825260208201905092915050565b6000601f19601f8301169050919050565b6000611917826117e8565b61192181856118ea565b93506119318185602086016117fe565b61193a816118fb565b840191505092915050565b6000602082019050818103600083015261195f818461190c565b905092915050565b600080fd5b611975826118fb565b810181811067ffffffffffffffff82111715611994576119936114bf565b5b80604052505050565b60006119a761117c565b90506119b3828261196c565b919050565b6119c1816112ae565b81146119cc57600080fd5b50565b6000815190506119de816119b8565b92915050565b6000604082840312156119fa576119f9611967565b5b611a04604061199d565b90506000611a14848285016119cf565b6000830152506020611a28848285016119cf565b60208301525092915050565b600060408284031215611a4a57611a49611186565b5b6000611a58848285016119e4565b91505092915050565b6000611a6c82611225565b9150611a7783611225565b9250828202611a8581611225565b91508282048414831517611a9c57611a9b6115c9565b5b5092915050565b6000611aae82611225565b9150611ab983611225565b9250828201905080821115611ad157611ad06115c9565b5b92915050565b611ae0816112ae565b82525050565b604082016000820151611afc6000850182611ad7565b506020820151611b0f6020850182611ad7565b50505050565b60006060820190508181036000830152611b2f818561190c565b9050611b3e6020830184611ae6565b9392505050565b6000611b5082611789565b9150611b5c8284611828565b915081905092915050565b6000611b7282611789565b9150611b7e8285611828565b9150611b8a8284611828565b91508190509392505050565b6000611ba28284611828565b915081905092915050565b6000611bb98286611828565b9150611bc58285611828565b9150611bd18284611828565b9150819050949350505050565b600060ff82169050919050565b60008160f81b9050919050565b6000611c0382611beb565b9050919050565b611c1b611c1682611bde565b611bf8565b82525050565b6000611c2d8284611c0a565b60018201915081905092915050565b6000611c4782611225565b91507fffffffffffffffffffffffffffffffffffffffffffffffffffffffffffffffff8203611c7957611c786115c9565b5b600182019050919050565b6000611c8f82611225565b9150611c9a83611225565b9250828203905081811115611cb257611cb16115c9565b5b92915050565b6000611cc3826112ae565b9150611cce836112ae565b9250828201905067ffffffffffffffff811115611cee57611ced6115c9565b5b9291505056fea26469706673582212206efa39c02bbbd171f43893bbe938950b984fc1380119589267609abb60ef0c0f64736f6c634300081c0033","opcodes":"PUSH1 0x80 PUSH1 0x40 MSTORE CALLVALUE DUP1 ISZERO PUSH1 0xF JUMPI PUSH1 0x0 DUP1 REVERT JUMPDEST POP CALLER PUSH1 0x0 DUP1 PUSH2 0x100 EXP DUP2 SLOAD DUP2 PUSH20 0xFFFFFFFFFFFFFFFFFFFFFFFFFFFFFFFFFFFFFFFF MUL NOT AND SWAP1 DUP4 PUSH20 0xFFFFFFFFFFFFFFFFFFFFFFFFFFFFFFFFFFFFFFFF AND MUL OR SWAP1 SSTORE POP PUSH2 0x1D2A DUP1 PUSH2 0x5F PUSH1 0x0 CODECOPY PUSH1 0x0 RETURN INVALID PUSH1 0x80 PUSH1 0x40 MSTORE CALLVALUE DUP1 ISZERO PUSH2 0x10 JUMPI PUSH1 0x0 DUP1 REVERT JUMPDEST POP PUSH1 0x4 CALLDATASIZE LT PUSH2 0x4C JUMPI PUSH1 0x0 CALLDATALOAD PUSH1 0xE0 SHR DUP1 PUSH4 0x2A092D5A EQ PUSH2 0x51 JUMPI DUP1 PUSH4 0x3AB4A1F8 EQ PUSH2 0x83 JUMPI DUP1 PUSH4 0x8DA5CB5B EQ PUSH2 0x9F JUMPI DUP1 PUSH4 0xC4BFFE2B EQ PUSH2 0xBD JUMPI JUMPDEST PUSH1 0x0 DUP1 REVERT JUMPDEST PUSH2 0x6B PUSH1 0x4 DUP1 CALLDATASIZE SUB DUP2 ADD SWAP1 PUSH2 0x66 SWAP2 SWAP1 PUSH2 0x125B JUMP JUMPDEST PUSH2 0xDB JUMP JUMPDEST PUSH1 0x40 MLOAD PUSH2 0x7A SWAP4 SWAP3 SWAP2 SWAP1 PUSH2 0x12E0 JUMP JUMPDEST PUSH1 0x40 MLOAD DUP1 SWAP2 SUB SWAP1 RETURN JUMPDEST PUSH2 0x9D PUSH1 0x4 DUP1 CALLDATASIZE SUB DUP2 ADD SWAP1 PUSH2 0x98 SWAP2 SWAP1 PUSH2 0x1317 JUMP JUMPDEST PUSH2 0x10E JUMP JUMPDEST STOP JUMPDEST PUSH2 0xA7 PUSH2 0x295 JUMP JUMPDEST PUSH1 0x40 MLOAD PUSH2 0xB4 SWAP2 SWAP1 PUSH2 0x138D JUMP JUMPDEST PUSH1 0x40 MLOAD DUP1 SWAP2 SUB SWAP1 RETURN JUMPDEST PUSH2 0xC5 PUSH2 0x2B9 JUMP JUMPDEST PUSH1 0x40 MLOAD PUSH2 0xD2 SWAP2 SWAP1 PUSH2 0x1466 JUMP JUMPDEST PUSH1 0x40 MLOAD DUP1 SWAP2 SUB SWAP1 RETURN JUMPDEST PUSH1 0x0 DUP1 PUSH1 0x0 DUP1 PUSH1 0x0 PUSH2 0xEE DUP9 DUP9 DUP9 PUSH2 0x467 JUMP JUMPDEST SWAP2 POP SWAP2 POP DUP2 PUSH1 0x0 ADD MLOAD DUP3 PUSH1 0x20 ADD MLOAD DUP3 SWAP5 POP SWAP5 POP SWAP5 POP POP POP SWAP4 POP SWAP4 POP SWAP4 SWAP1 POP JUMP JUMPDEST PUSH1 0x0 PUSH1 0x14 SWAP1 SLOAD SWAP1 PUSH2 0x100 EXP SWAP1 DIV PUSH1 0xFF AND ISZERO PUSH2 0x155 JUMPI PUSH1 0x40 MLOAD PUSH32 0x37ED32E800000000000000000000000000000000000000000000000000000000 DUP2 MSTORE PUSH1 0x4 ADD PUSH1 0x40 MLOAD DUP1 SWAP2 SUB SWAP1 REVERT JUMPDEST PUSH1 0x1 PUSH1 0x0 PUSH1 0x14 PUSH2 0x100 EXP DUP2 SLOAD DUP2 PUSH1 0xFF MUL NOT AND SWAP1 DUP4 ISZERO ISZERO MUL OR SWAP1 SSTORE POP PUSH1 0x0 DUP2 SUB PUSH2 0x1AA JUMPI PUSH1 0x40 MLOAD PUSH32 0x1F2A200500000000000000000000000000000000000000000000000000000000 DUP2 MSTORE PUSH1 0x4 ADD PUSH1 0x40 MLOAD DUP1 SWAP2 SUB SWAP1 REVERT JUMPDEST PUSH1 0x0 PUSH20 0xFFFFFFFFFFFFFFFFFFFFFFFFFFFFFFFFFFFFFFFF AND DUP4 PUSH20 0xFFFFFFFFFFFFFFFFFFFFFFFFFFFFFFFFFFFFFFFF AND SUB PUSH2 0x210 JUMPI PUSH1 0x40 MLOAD PUSH32 0xD27B444300000000000000000000000000000000000000000000000000000000 DUP2 MSTORE PUSH1 0x4 ADD PUSH1 0x40 MLOAD DUP1 SWAP2 SUB SWAP1 REVERT JUMPDEST PUSH2 0x21C DUP5 DUP5 DUP5 DUP5 PUSH2 0x548 JUMP JUMPDEST DUP4 PUSH4 0xFFFFFFFF AND CALLER PUSH20 0xFFFFFFFFFFFFFFFFFFFFFFFFFFFFFFFFFFFFFFFF AND PUSH32 0x3F5CAB1BCEA04CB38F44548D0E221C824BB2E92C08870E65C49A5205F26AAA14 DUP6 DUP6 DUP6 PUSH1 0x40 MLOAD PUSH2 0x26D SWAP4 SWAP3 SWAP2 SWAP1 PUSH2 0x1488 JUMP JUMPDEST PUSH1 0x40 MLOAD DUP1 SWAP2 SUB SWAP1 LOG3 PUSH1 0x0 DUP1 PUSH1 0x14 PUSH2 0x100 EXP DUP2 SLOAD DUP2 PUSH1 0xFF MUL NOT AND SWAP1 DUP4 ISZERO ISZERO MUL OR SWAP1 SSTORE POP POP POP POP POP JUMP JUMPDEST PUSH1 0x0 DUP1 SLOAD SWAP1 PUSH2 0x100 EXP SWAP1 DIV PUSH20 0xFFFFFFFFFFFFFFFFFFFFFFFFFFFFFFFFFFFFFFFF AND DUP2 JUMP JUMPDEST PUSH1 0x60 PUSH1 0x0 PUSH1 0x7 PUSH8 0xFFFFFFFFFFFFFFFF DUP2 GT ISZERO PUSH2 0x2D8 JUMPI PUSH2 0x2D7 PUSH2 0x14BF JUMP JUMPDEST JUMPDEST PUSH1 0x40 MLOAD SWAP1 DUP1 DUP3 MSTORE DUP1 PUSH1 0x20 MUL PUSH1 0x20 ADD DUP3 ADD PUSH1 0x40 MSTORE DUP1 ISZERO PUSH2 0x306 JUMPI DUP2 PUSH1 0x20 ADD PUSH1 0x20 DUP3 MUL DUP1 CALLDATASIZE DUP4 CALLDATACOPY DUP1 DUP3 ADD SWAP2 POP POP SWAP1 POP JUMPDEST POP SWAP1 POP PUSH2 0x3E8 DUP2 PUSH1 0x0 DUP2 MLOAD DUP2 LT PUSH2 0x320 JUMPI PUSH2 0x31F PUSH2 0x14EE JUMP JUMPDEST JUMPDEST PUSH1 0x20 MUL PUSH1 0x20 ADD ADD SWAP1 PUSH4 0xFFFFFFFF AND SWAP1 DUP2 PUSH4 0xFFFFFFFF AND DUP2 MSTORE POP POP PUSH2 0x3EA DUP2 PUSH1 0x1 DUP2 MLOAD DUP2 LT PUSH2 0x351 JUMPI PUSH2 0x350 PUSH2 0x14EE JUMP JUMPDEST JUMPDEST PUSH1 0x20 MUL PUSH1 0x20 ADD ADD SWAP1 PUSH4 0xFFFFFFFF AND SWAP1 DUP2 PUSH4 0xFFFFFFFF AND DUP2 MSTORE POP POP PUSH2 0x7F2 DUP2 PUSH1 0x2 DUP2 MLOAD DUP2 LT PUSH2 0x382 JUMPI PUSH2 0x381 PUSH2 0x14EE JUMP JUMPDEST JUMPDEST PUSH1 0x20 MUL PUSH1 0x20 ADD ADD SWAP1 PUSH4 0xFFFFFFFF AND SWAP1 DUP2 PUSH4 0xFFFFFFFF AND DUP2 MSTORE POP POP PUSH2 0x7D4 DUP2 PUSH1 0x3 DUP2 MLOAD DUP2 LT PUSH2 0x3B3 JUMPI PUSH2 0x3B2 PUSH2 0x14EE JUMP JUMPDEST JUMPDEST PUSH1 0x20 MUL PUSH1 0x20 ADD ADD SWAP1 PUSH4 0xFFFFFFFF AND SWAP1 DUP2 PUSH4 0xFFFFFFFF AND DUP2 MSTORE POP POP PUSH2 0x7D6 DUP2 PUSH1 0x4 DUP2 MLOAD DUP2 LT PUSH2 0x3E4 JUMPI PUSH2 0x3E3 PUSH2 0x14EE JUMP JUMPDEST JUMPDEST PUSH1 0x20 MUL PUSH1 0x20 ADD ADD SWAP1 PUSH4 0xFFFFFFFF AND SWAP1 DUP2 PUSH4 0xFFFFFFFF AND DUP2 MSTORE POP POP PUSH2 0x7D0 DUP2 PUSH1 0x5 DUP2 MLOAD DUP2 LT PUSH2 0x415 JUMPI PUSH2 0x414 PUSH2 0x14EE JUMP JUMPDEST JUMPDEST PUSH1 0x20 MUL PUSH1 0x20 ADD ADD SWAP1 PUSH4 0xFFFFFFFF AND SWAP1 DUP2 PUSH4 0xFFFFFFFF AND DUP2 MSTORE POP POP PUSH2 0x7EE DUP2 PUSH1 0x6 DUP2 MLOAD DUP2 LT PUSH2 0x446 JUMPI PUSH2 0x445 PUSH2 0x14EE JUMP JUMPDEST JUMPDEST PUSH1 0x20 MUL PUSH1 0x20 ADD ADD SWAP1 PUSH4 0xFFFFFFFF AND SWAP1 DUP2 PUSH4 0xFFFFFFFF AND DUP2 MSTORE POP POP DUP1 SWAP2 POP POP SWAP1 JUMP JUMPDEST PUSH2 0x46F PUSH2 0x114E JUMP JUMPDEST PUSH1 0x0 PUSH16 0xFFFFFFFFFFFFFFFFFFFFFFFFFFFFFFFF DUP1 AND DUP4 GT ISZERO PUSH2 0x4C6 JUMPI PUSH1 0x40 MLOAD PUSH32 0x8C379A000000000000000000000000000000000000000000000000000000000 DUP2 MSTORE PUSH1 0x4 ADD PUSH2 0x4BD SWAP1 PUSH2 0x157A JUMP JUMPDEST PUSH1 0x40 MLOAD DUP1 SWAP2 SUB SWAP1 REVERT JUMPDEST PUSH1 0x0 PUSH2 0x4D1 DUP6 PUSH2 0x653 JUMP JUMPDEST SWAP1 POP PUSH1 0x0 PUSH2 0x4DF PUSH1 0x0 PUSH2 0x664 JUMP JUMPDEST SWAP1 POP PUSH1 0x0 PUSH1 0xA DUP7 PUSH2 0x4F0 SWAP2 SWAP1 PUSH2 0x15F8 JUMP JUMPDEST SWAP1 POP PUSH3 0xF4240 DUP2 PUSH16 0xFFFFFFFFFFFFFFFFFFFFFFFFFFFFFFFF AND LT ISZERO PUSH2 0x516 JUMPI PUSH3 0xF4240 SWAP1 POP JUMPDEST PUSH1 0x0 PUSH2 0x524 DUP5 DUP9 DUP5 DUP7 PUSH2 0x6C3 JUMP JUMPDEST SWAP1 POP PUSH2 0x52F DUP2 PUSH2 0x75E JUMP JUMPDEST SWAP6 POP PUSH2 0x53A DUP2 PUSH2 0x7EF JUMP JUMPDEST SWAP5 POP POP POP POP POP SWAP4 POP SWAP4 SWAP2 POP POP JUMP JUMPDEST PUSH1 0x0 DUP2 GT PUSH2 0x58B JUMPI PUSH1 0x40 MLOAD PUSH32 0x8C379A000000000000000000000000000000000000000000000000000000000 DUP2 MSTORE PUSH1 0x4 ADD PUSH2 0x582 SWAP1 PUSH2 0x1675 JUMP JUMPDEST PUSH1 0x40 MLOAD DUP1 SWAP2 SUB SWAP1 REVERT JUMPDEST PUSH16 0xFFFFFFFFFFFFFFFFFFFFFFFFFFFFFFFF DUP1 AND DUP2 GT ISZERO PUSH2 0x5E0 JUMPI PUSH1 0x40 MLOAD PUSH32 0x8C379A000000000000000000000000000000000000000000000000000000000 DUP2 MSTORE PUSH1 0x4 ADD PUSH2 0x5D7 SWAP1 PUSH2 0x157A JUMP JUMPDEST PUSH1 0x40 MLOAD DUP1 SWAP2 SUB SWAP1 REVERT JUMPDEST PUSH1 0x0 PUSH2 0x5EB DUP4 PUSH2 0x653 JUMP JUMPDEST SWAP1 POP PUSH1 0x0 PUSH2 0x5F8 DUP6 PUSH2 0x664 JUMP JUMPDEST SWAP1 POP PUSH1 0x0 PUSH1 0xA DUP5 PUSH2 0x609 SWAP2 SWAP1 PUSH2 0x15F8 JUMP JUMPDEST SWAP1 POP PUSH3 0xF4240 DUP2 PUSH16 0xFFFFFFFFFFFFFFFFFFFFFFFFFFFFFFFF AND LT ISZERO PUSH2 0x62F JUMPI PUSH3 0xF4240 SWAP1 POP JUMPDEST PUSH1 0x0 PUSH2 0x63D DUP5 DUP7 DUP5 DUP7 PUSH2 0x6C3 JUMP JUMPDEST SWAP1 POP PUSH2 0x648 DUP2 PUSH2 0x86D JUMP JUMPDEST POP POP POP POP POP POP POP POP POP JUMP JUMPDEST PUSH1 0x60 PUSH2 0x65D PUSH2 0x90B JUMP JUMPDEST SWAP1 POP SWAP2 SWAP1 POP JUMP JUMPDEST PUSH1 0x60 PUSH1 0x0 PUSH2 0x672 PUSH1 0x0 PUSH2 0x95F JUMP JUMPDEST SWAP1 POP PUSH1 0x0 DUP4 PUSH1 0x40 MLOAD PUSH1 0x20 ADD PUSH2 0x687 SWAP2 SWAP1 PUSH2 0x17AC JUMP JUMPDEST PUSH1 0x40 MLOAD PUSH1 0x20 DUP2 DUP4 SUB SUB DUP2 MSTORE SWAP1 PUSH1 0x40 MSTORE SWAP1 POP DUP2 DUP2 PUSH1 0x40 MLOAD PUSH1 0x20 ADD PUSH2 0x6AB SWAP3 SWAP2 SWAP1 PUSH2 0x1859 JUMP JUMPDEST PUSH1 0x40 MLOAD PUSH1 0x20 DUP2 DUP4 SUB SUB DUP2 MSTORE SWAP1 PUSH1 0x40 MSTORE SWAP3 POP POP POP SWAP2 SWAP1 POP JUMP JUMPDEST PUSH1 0x60 PUSH1 0x0 PUSH2 0x6D1 DUP7 DUP7 PUSH2 0xA03 JUMP JUMPDEST SWAP1 POP PUSH1 0x0 PUSH2 0x6DD PUSH2 0xACE JUMP JUMPDEST SWAP1 POP PUSH1 0x0 PUSH2 0x6EB DUP9 DUP8 PUSH2 0xAFE JUMP JUMPDEST SWAP1 POP PUSH1 0x0 PUSH2 0x6F8 DUP7 PUSH2 0xBB7 JUMP JUMPDEST SWAP1 POP PUSH1 0x0 PUSH2 0x706 PUSH1 0x4 PUSH2 0xC28 JUMP JUMPDEST DUP6 DUP6 DUP6 DUP6 PUSH1 0x40 MLOAD PUSH1 0x20 ADD PUSH2 0x71E SWAP6 SWAP5 SWAP4 SWAP3 SWAP2 SWAP1 PUSH2 0x187D JUMP JUMPDEST PUSH1 0x40 MLOAD PUSH1 0x20 DUP2 DUP4 SUB SUB DUP2 MSTORE SWAP1 PUSH1 0x40 MSTORE SWAP1 POP DUP1 PUSH1 0x40 MLOAD PUSH1 0x20 ADD PUSH2 0x740 SWAP2 SWAP1 PUSH2 0x18C8 JUMP JUMPDEST PUSH1 0x40 MLOAD PUSH1 0x20 DUP2 DUP4 SUB SUB DUP2 MSTORE SWAP1 PUSH1 0x40 MSTORE SWAP6 POP POP POP POP POP POP SWAP5 SWAP4 POP POP POP POP JUMP JUMPDEST PUSH2 0x766 PUSH2 0x114E JUMP JUMPDEST PUSH1 0x0 PUSH3 0xA0000 SWAP1 POP DUP1 PUSH20 0xFFFFFFFFFFFFFFFFFFFFFFFFFFFFFFFFFFFFFFFF AND PUSH4 0x47400C23 DUP5 PUSH1 0x40 MLOAD DUP3 PUSH4 0xFFFFFFFF AND PUSH1 0xE0 SHL DUP2 MSTORE PUSH1 0x4 ADD PUSH2 0x7A7 SWAP2 SWAP1 PUSH2 0x1945 JUMP JUMPDEST PUSH1 0x40 DUP1 MLOAD DUP1 DUP4 SUB DUP2 DUP7 GAS STATICCALL ISZERO DUP1 ISZERO PUSH2 0x7C3 JUMPI RETURNDATASIZE PUSH1 0x0 DUP1 RETURNDATACOPY RETURNDATASIZE PUSH1 0x0 REVERT JUMPDEST POP POP POP POP PUSH1 0x40 MLOAD RETURNDATASIZE PUSH1 0x1F NOT PUSH1 0x1F DUP3 ADD AND DUP3 ADD DUP1 PUSH1 0x40 MSTORE POP DUP2 ADD SWAP1 PUSH2 0x7E7 SWAP2 SWAP1 PUSH2 0x1A34 JUMP JUMPDEST SWAP2 POP POP SWAP2 SWAP1 POP JUMP JUMPDEST PUSH1 0x0 DUP1 PUSH2 0x7FB DUP4 PUSH2 0x75E JUMP JUMPDEST SWAP1 POP PUSH1 0x0 PUSH4 0x3B9ACA00 PUSH1 0x64 DUP4 PUSH1 0x0 ADD MLOAD PUSH8 0xFFFFFFFFFFFFFFFF AND PUSH2 0x81F SWAP2 SWAP1 PUSH2 0x1A61 JUMP JUMPDEST PUSH2 0x829 SWAP2 SWAP1 PUSH2 0x15F8 JUMP JUMPDEST SWAP1 POP PUSH1 0x0 PUSH2 0x400 PUSH1 0xA DUP5 PUSH1 0x20 ADD MLOAD PUSH8 0xFFFFFFFFFFFFFFFF AND PUSH2 0x84B SWAP2 SWAP1 PUSH2 0x1A61 JUMP JUMPDEST PUSH2 0x855 SWAP2 SWAP1 PUSH2 0x15F8 JUMP JUMPDEST SWAP1 POP DUP1 DUP3 PUSH2 0x863 SWAP2 SWAP1 PUSH2 0x1AA3 JUMP JUMPDEST SWAP4 POP POP POP POP SWAP2 SWAP1 POP JUMP JUMPDEST PUSH1 0x0 DUP1 PUSH2 0x879 DUP4 PUSH2 0x75E JUMP JUMPDEST SWAP1 POP PUSH1 0x0 PUSH2 0x888 DUP3 PUSH1 0x14 PUSH2 0xEF5 JUMP JUMPDEST SWAP1 POP PUSH1 0x0 PUSH3 0xA0000 SWAP1 POP DUP1 PUSH20 0xFFFFFFFFFFFFFFFFFFFFFFFFFFFFFFFFFFFFFFFF AND PUSH4 0xD3B7E04D DUP7 DUP5 PUSH1 0x40 MLOAD DUP4 PUSH4 0xFFFFFFFF AND PUSH1 0xE0 SHL DUP2 MSTORE PUSH1 0x4 ADD PUSH2 0x8CD SWAP3 SWAP2 SWAP1 PUSH2 0x1B15 JUMP JUMPDEST PUSH1 0x0 PUSH1 0x40 MLOAD DUP1 DUP4 SUB DUP2 PUSH1 0x0 DUP8 DUP1 EXTCODESIZE ISZERO DUP1 ISZERO PUSH2 0x8E7 JUMPI PUSH1 0x0 DUP1 REVERT JUMPDEST POP GAS CALL ISZERO DUP1 ISZERO PUSH2 0x8FB JUMPI RETURNDATASIZE PUSH1 0x0 DUP1 RETURNDATACOPY RETURNDATASIZE PUSH1 0x0 REVERT JUMPDEST POP POP POP POP PUSH1 0x1 SWAP4 POP POP POP POP SWAP2 SWAP1 POP JUMP JUMPDEST PUSH1 0x60 PUSH1 0x0 PUSH2 0x919 PUSH1 0x0 PUSH2 0x95F JUMP JUMPDEST SWAP1 POP PUSH1 0x0 PUSH1 0x40 MLOAD DUP1 PUSH1 0x40 ADD PUSH1 0x40 MSTORE DUP1 PUSH1 0x1 DUP2 MSTORE PUSH1 0x20 ADD PUSH1 0x0 DUP2 MSTORE POP SWAP1 POP DUP2 DUP2 PUSH1 0x40 MLOAD PUSH1 0x20 ADD PUSH2 0x949 SWAP3 SWAP2 SWAP1 PUSH2 0x1859 JUMP JUMPDEST PUSH1 0x40 MLOAD PUSH1 0x20 DUP2 DUP4 SUB SUB DUP2 MSTORE SWAP1 PUSH1 0x40 MSTORE SWAP3 POP POP POP SWAP1 JUMP JUMPDEST PUSH1 0x60 PUSH1 0x0 PUSH1 0x1 PUSH8 0xFFFFFFFFFFFFFFFF DUP2 GT ISZERO PUSH2 0x97E JUMPI PUSH2 0x97D PUSH2 0x14BF JUMP JUMPDEST JUMPDEST PUSH1 0x40 MLOAD SWAP1 DUP1 DUP3 MSTORE DUP1 PUSH1 0x1F ADD PUSH1 0x1F NOT AND PUSH1 0x20 ADD DUP3 ADD PUSH1 0x40 MSTORE DUP1 ISZERO PUSH2 0x9B0 JUMPI DUP2 PUSH1 0x20 ADD PUSH1 0x1 DUP3 MUL DUP1 CALLDATASIZE DUP4 CALLDATACOPY DUP1 DUP3 ADD SWAP2 POP POP SWAP1 POP JUMPDEST POP SWAP1 POP DUP3 PUSH1 0xF8 SHL DUP2 PUSH1 0x0 DUP2 MLOAD DUP2 LT PUSH2 0x9CB JUMPI PUSH2 0x9CA PUSH2 0x14EE JUMP JUMPDEST JUMPDEST PUSH1 0x20 ADD ADD SWAP1 PUSH31 0xFFFFFFFFFFFFFFFFFFFFFFFFFFFFFFFFFFFFFFFFFFFFFFFFFFFFFFFFFFFFFF NOT AND SWAP1 DUP2 PUSH1 0x0 BYTE SWAP1 MSTORE8 POP DUP1 SWAP2 POP POP SWAP2 SWAP1 POP JUMP JUMPDEST PUSH1 0x60 PUSH1 0x0 PUSH2 0xA22 DUP4 PUSH16 0xFFFFFFFFFFFFFFFFFFFFFFFFFFFFFFFF AND PUSH2 0xC28 JUMP JUMPDEST PUSH1 0x40 MLOAD PUSH1 0x20 ADD PUSH2 0xA32 SWAP2 SWAP1 PUSH2 0x1B45 JUMP JUMPDEST PUSH1 0x40 MLOAD PUSH1 0x20 DUP2 DUP4 SUB SUB DUP2 MSTORE SWAP1 PUSH1 0x40 MSTORE SWAP1 POP PUSH1 0x0 DUP5 DUP3 PUSH1 0x40 MLOAD PUSH1 0x20 ADD PUSH2 0xA58 SWAP3 SWAP2 SWAP1 PUSH2 0x1B67 JUMP JUMPDEST PUSH1 0x40 MLOAD PUSH1 0x20 DUP2 DUP4 SUB SUB DUP2 MSTORE SWAP1 PUSH1 0x40 MSTORE SWAP1 POP PUSH1 0x0 PUSH2 0xA75 PUSH1 0x1 PUSH2 0xC28 JUMP JUMPDEST DUP3 PUSH1 0x40 MLOAD PUSH1 0x20 ADD PUSH2 0xA87 SWAP3 SWAP2 SWAP1 PUSH2 0x1859 JUMP JUMPDEST PUSH1 0x40 MLOAD PUSH1 0x20 DUP2 DUP4 SUB SUB DUP2 MSTORE SWAP1 PUSH1 0x40 MSTORE SWAP1 POP PUSH2 0xAA2 PUSH1 0x4 PUSH2 0x95F JUMP JUMPDEST DUP2 PUSH1 0x40 MLOAD PUSH1 0x20 ADD PUSH2 0xAB4 SWAP3 SWAP2 SWAP1 PUSH2 0x1859 JUMP JUMPDEST PUSH1 0x40 MLOAD PUSH1 0x20 DUP2 DUP4 SUB SUB DUP2 MSTORE SWAP1 PUSH1 0x40 MSTORE SWAP4 POP POP POP POP SWAP3 SWAP2 POP POP JUMP JUMPDEST PUSH1 0x60 PUSH2 0xADA PUSH1 0xD PUSH2 0x95F JUMP JUMPDEST PUSH1 0x40 MLOAD PUSH1 0x20 ADD PUSH2 0xAEA SWAP2 SWAP1 PUSH2 0x1B96 JUMP JUMPDEST PUSH1 0x40 MLOAD PUSH1 0x20 DUP2 DUP4 SUB SUB DUP2 MSTORE SWAP1 PUSH1 0x40 MSTORE SWAP1 POP SWAP1 JUMP JUMPDEST PUSH1 0x60 PUSH1 0x0 PUSH2 0xB1D DUP4 PUSH16 0xFFFFFFFFFFFFFFFFFFFFFFFFFFFFFFFF AND PUSH2 0xC28 JUMP JUMPDEST PUSH1 0x40 MLOAD PUSH1 0x20 ADD PUSH2 0xB2D SWAP2 SWAP1 PUSH2 0x1B45 JUMP JUMPDEST PUSH1 0x40 MLOAD PUSH1 0x20 DUP2 DUP4 SUB SUB DUP2 MSTORE SWAP1 PUSH1 0x40 MSTORE SWAP1 POP PUSH1 0x0 DUP5 DUP3 PUSH1 0x40 MLOAD PUSH1 0x20 ADD PUSH2 0xB53 SWAP3 SWAP2 SWAP1 PUSH2 0x1B67 JUMP JUMPDEST PUSH1 0x40 MLOAD PUSH1 0x20 DUP2 DUP4 SUB SUB DUP2 MSTORE SWAP1 PUSH1 0x40 MSTORE SWAP1 POP PUSH1 0x0 PUSH1 0x40 MLOAD DUP1 PUSH1 0x40 ADD PUSH1 0x40 MSTORE DUP1 PUSH1 0x1 DUP2 MSTORE PUSH1 0x20 ADD PUSH1 0x0 DUP2 MSTORE POP SWAP1 POP PUSH2 0xB89 PUSH1 0x8 PUSH2 0x95F JUMP JUMPDEST DUP3 DUP3 PUSH1 0x40 MLOAD PUSH1 0x20 ADD PUSH2 0xB9D SWAP4 SWAP3 SWAP2 SWAP1 PUSH2 0x1BAD JUMP JUMPDEST PUSH1 0x40 MLOAD PUSH1 0x20 DUP2 DUP4 SUB SUB DUP2 MSTORE SWAP1 PUSH1 0x40 MSTORE SWAP4 POP POP POP POP SWAP3 SWAP2 POP POP JUMP JUMPDEST PUSH1 0x60 PUSH1 0x0 PUSH1 0x40 MLOAD DUP1 PUSH1 0x40 ADD PUSH1 0x40 MSTORE DUP1 PUSH1 0x1 DUP2 MSTORE PUSH1 0x20 ADD PUSH32 0x100000000000000000000000000000000000000000000000000000000000000 DUP2 MSTORE POP SWAP1 POP PUSH2 0xBFD PUSH1 0x12 PUSH2 0x95F JUMP JUMPDEST DUP2 DUP5 PUSH1 0x40 MLOAD PUSH1 0x20 ADD PUSH2 0xC11 SWAP4 SWAP3 SWAP2 SWAP1 PUSH2 0x1BAD JUMP JUMPDEST PUSH1 0x40 MLOAD PUSH1 0x20 DUP2 DUP4 SUB SUB DUP2 MSTORE SWAP1 PUSH1 0x40 MSTORE SWAP2 POP POP SWAP2 SWAP1 POP JUMP JUMPDEST PUSH1 0x60 PUSH1 0x40 DUP3 LT ISZERO PUSH2 0xC5E JUMPI PUSH1 0x2 DUP3 SWAP1 SHL PUSH1 0x40 MLOAD PUSH1 0x20 ADD PUSH2 0xC48 SWAP2 SWAP1 PUSH2 0x1C21 JUMP JUMPDEST PUSH1 0x40 MLOAD PUSH1 0x20 DUP2 DUP4 SUB SUB DUP2 MSTORE SWAP1 PUSH1 0x40 MSTORE SWAP1 POP PUSH2 0xEF0 JUMP JUMPDEST PUSH2 0x4000 DUP3 LT ISZERO PUSH2 0xD66 JUMPI PUSH1 0x0 PUSH1 0x1 PUSH1 0x2 DUP5 SWAP1 SHL OR SWAP1 POP PUSH1 0x0 PUSH1 0x2 PUSH8 0xFFFFFFFFFFFFFFFF DUP2 GT ISZERO PUSH2 0xC91 JUMPI PUSH2 0xC90 PUSH2 0x14BF JUMP JUMPDEST JUMPDEST PUSH1 0x40 MLOAD SWAP1 DUP1 DUP3 MSTORE DUP1 PUSH1 0x1F ADD PUSH1 0x1F NOT AND PUSH1 0x20 ADD DUP3 ADD PUSH1 0x40 MSTORE DUP1 ISZERO PUSH2 0xCC3 JUMPI DUP2 PUSH1 0x20 ADD PUSH1 0x1 DUP3 MUL DUP1 CALLDATASIZE DUP4 CALLDATACOPY DUP1 DUP3 ADD SWAP2 POP POP SWAP1 POP JUMPDEST POP SWAP1 POP DUP2 PUSH1 0xF8 SHL DUP2 PUSH1 0x0 DUP2 MLOAD DUP2 LT PUSH2 0xCDE JUMPI PUSH2 0xCDD PUSH2 0x14EE JUMP JUMPDEST JUMPDEST PUSH1 0x20 ADD ADD SWAP1 PUSH31 0xFFFFFFFFFFFFFFFFFFFFFFFFFFFFFFFFFFFFFFFFFFFFFFFFFFFFFFFFFFFFFF NOT AND SWAP1 DUP2 PUSH1 0x0 BYTE SWAP1 MSTORE8 POP PUSH1 0x8 DUP3 PUSH2 0xFFFF AND SWAP1 SHR PUSH1 0xF8 SHL DUP2 PUSH1 0x1 DUP2 MLOAD DUP2 LT PUSH2 0xD2D JUMPI PUSH2 0xD2C PUSH2 0x14EE JUMP JUMPDEST JUMPDEST PUSH1 0x20 ADD ADD SWAP1 PUSH31 0xFFFFFFFFFFFFFFFFFFFFFFFFFFFFFFFFFFFFFFFFFFFFFFFFFFFFFFFFFFFFFF NOT AND SWAP1 DUP2 PUSH1 0x0 BYTE SWAP1 MSTORE8 POP DUP1 SWAP3 POP POP POP PUSH2 0xEF0 JUMP JUMPDEST PUSH4 0x40000000 DUP3 LT ISZERO PUSH2 0xD8E JUMPI PUSH1 0x0 PUSH1 0x2 DUP1 DUP5 SWAP1 SHL OR SWAP1 POP PUSH2 0xD86 DUP2 PUSH2 0xFB7 JUMP JUMPDEST SWAP2 POP POP PUSH2 0xEF0 JUMP JUMPDEST PUSH1 0x0 DUP1 DUP4 SWAP1 POP JUMPDEST PUSH1 0x0 DUP2 GT ISZERO PUSH2 0xDB8 JUMPI DUP2 DUP1 PUSH2 0xDA9 SWAP1 PUSH2 0x1C3C JUMP JUMPDEST SWAP3 POP POP PUSH1 0x8 DUP2 SWAP1 SHR SWAP1 POP PUSH2 0xD95 JUMP JUMPDEST PUSH1 0x0 PUSH1 0x1 DUP4 PUSH2 0xDC7 SWAP2 SWAP1 PUSH2 0x1AA3 JUMP JUMPDEST PUSH8 0xFFFFFFFFFFFFFFFF DUP2 GT ISZERO PUSH2 0xDE0 JUMPI PUSH2 0xDDF PUSH2 0x14BF JUMP JUMPDEST JUMPDEST PUSH1 0x40 MLOAD SWAP1 DUP1 DUP3 MSTORE DUP1 PUSH1 0x1F ADD PUSH1 0x1F NOT AND PUSH1 0x20 ADD DUP3 ADD PUSH1 0x40 MSTORE DUP1 ISZERO PUSH2 0xE12 JUMPI DUP2 PUSH1 0x20 ADD PUSH1 0x1 DUP3 MUL DUP1 CALLDATASIZE DUP4 CALLDATACOPY DUP1 DUP3 ADD SWAP2 POP POP SWAP1 POP JUMPDEST POP SWAP1 POP PUSH1 0x3 PUSH1 0x2 PUSH1 0x4 DUP6 PUSH2 0xE26 SWAP2 SWAP1 PUSH2 0x1C84 JUMP JUMPDEST SWAP1 SHL OR PUSH1 0xF8 SHL DUP2 PUSH1 0x0 DUP2 MLOAD DUP2 LT PUSH2 0xE40 JUMPI PUSH2 0xE3F PUSH2 0x14EE JUMP JUMPDEST JUMPDEST PUSH1 0x20 ADD ADD SWAP1 PUSH31 0xFFFFFFFFFFFFFFFFFFFFFFFFFFFFFFFFFFFFFFFFFFFFFFFFFFFFFFFFFFFFFF NOT AND SWAP1 DUP2 PUSH1 0x0 BYTE SWAP1 MSTORE8 POP PUSH1 0x0 JUMPDEST DUP4 DUP2 LT ISZERO PUSH2 0xEE8 JUMPI PUSH1 0x8 DUP2 PUSH2 0xE87 SWAP2 SWAP1 PUSH2 0x1A61 JUMP JUMPDEST DUP7 SWAP1 SHR PUSH1 0xF8 SHL DUP3 PUSH1 0x1 DUP4 PUSH2 0xE9B SWAP2 SWAP1 PUSH2 0x1AA3 JUMP JUMPDEST DUP2 MLOAD DUP2 LT PUSH2 0xEAC JUMPI PUSH2 0xEAB PUSH2 0x14EE JUMP JUMPDEST JUMPDEST PUSH1 0x20 ADD ADD SWAP1 PUSH31 0xFFFFFFFFFFFFFFFFFFFFFFFFFFFFFFFFFFFFFFFFFFFFFFFFFFFFFFFFFFFFFF NOT AND SWAP1 DUP2 PUSH1 0x0 BYTE SWAP1 MSTORE8 POP DUP1 DUP1 PUSH1 0x1 ADD SWAP2 POP POP PUSH2 0xE72 JUMP JUMPDEST POP DUP1 SWAP4 POP POP POP POP JUMPDEST SWAP2 SWAP1 POP JUMP JUMPDEST PUSH2 0xEFD PUSH2 0x114E JUMP JUMPDEST PUSH2 0xF05 PUSH2 0x114E JUMP JUMPDEST PUSH1 0x64 DUP4 DUP6 PUSH1 0x0 ADD MLOAD PUSH8 0xFFFFFFFFFFFFFFFF AND PUSH2 0xF21 SWAP2 SWAP1 PUSH2 0x1A61 JUMP JUMPDEST PUSH2 0xF2B SWAP2 SWAP1 PUSH2 0x15F8 JUMP JUMPDEST DUP5 PUSH1 0x0 ADD MLOAD PUSH2 0xF3A SWAP2 SWAP1 PUSH2 0x1CB8 JUMP JUMPDEST DUP2 PUSH1 0x0 ADD SWAP1 PUSH8 0xFFFFFFFFFFFFFFFF AND SWAP1 DUP2 PUSH8 0xFFFFFFFFFFFFFFFF AND DUP2 MSTORE POP POP PUSH1 0x64 DUP4 DUP6 PUSH1 0x20 ADD MLOAD PUSH8 0xFFFFFFFFFFFFFFFF AND PUSH2 0xF75 SWAP2 SWAP1 PUSH2 0x1A61 JUMP JUMPDEST PUSH2 0xF7F SWAP2 SWAP1 PUSH2 0x15F8 JUMP JUMPDEST DUP5 PUSH1 0x20 ADD MLOAD PUSH2 0xF8E SWAP2 SWAP1 PUSH2 0x1CB8 JUMP JUMPDEST DUP2 PUSH1 0x20 ADD SWAP1 PUSH8 0xFFFFFFFFFFFFFFFF AND SWAP1 DUP2 PUSH8 0xFFFFFFFFFFFFFFFF AND DUP2 MSTORE POP POP DUP1 SWAP2 POP POP SWAP3 SWAP2 POP POP JUMP JUMPDEST PUSH1 0x60 PUSH1 0x0 PUSH1 0x4 PUSH8 0xFFFFFFFFFFFFFFFF DUP2 GT ISZERO PUSH2 0xFD6 JUMPI PUSH2 0xFD5 PUSH2 0x14BF JUMP JUMPDEST JUMPDEST PUSH1 0x40 MLOAD SWAP1 DUP1 DUP3 MSTORE DUP1 PUSH1 0x1F ADD PUSH1 0x1F NOT AND PUSH1 0x20 ADD DUP3 ADD PUSH1 0x40 MSTORE DUP1 ISZERO PUSH2 0x1008 JUMPI DUP2 PUSH1 0x20 ADD PUSH1 0x1 DUP3 MUL DUP1 CALLDATASIZE DUP4 CALLDATACOPY DUP1 DUP3 ADD SWAP2 POP POP SWAP1 POP JUMPDEST POP SWAP1 POP DUP3 PUSH1 0xF8 SHL DUP2 PUSH1 0x0 DUP2 MLOAD DUP2 LT PUSH2 0x1023 JUMPI PUSH2 0x1022 PUSH2 0x14EE JUMP JUMPDEST JUMPDEST PUSH1 0x20 ADD ADD SWAP1 PUSH31 0xFFFFFFFFFFFFFFFFFFFFFFFFFFFFFFFFFFFFFFFFFFFFFFFFFFFFFFFFFFFFFF NOT AND SWAP1 DUP2 PUSH1 0x0 BYTE SWAP1 MSTORE8 POP PUSH1 0x8 DUP4 PUSH4 0xFFFFFFFF AND SWAP1 SHR PUSH1 0xF8 SHL DUP2 PUSH1 0x1 DUP2 MLOAD DUP2 LT PUSH2 0x1074 JUMPI PUSH2 0x1073 PUSH2 0x14EE JUMP JUMPDEST JUMPDEST PUSH1 0x20 ADD ADD SWAP1 PUSH31 0xFFFFFFFFFFFFFFFFFFFFFFFFFFFFFFFFFFFFFFFFFFFFFFFFFFFFFFFFFFFFFF NOT AND SWAP1 DUP2 PUSH1 0x0 BYTE SWAP1 MSTORE8 POP PUSH1 0x10 DUP4 PUSH4 0xFFFFFFFF AND SWAP1 SHR PUSH1 0xF8 SHL DUP2 PUSH1 0x2 DUP2 MLOAD DUP2 LT PUSH2 0x10C5 JUMPI PUSH2 0x10C4 PUSH2 0x14EE JUMP JUMPDEST JUMPDEST PUSH1 0x20 ADD ADD SWAP1 PUSH31 0xFFFFFFFFFFFFFFFFFFFFFFFFFFFFFFFFFFFFFFFFFFFFFFFFFFFFFFFFFFFFFF NOT AND SWAP1 DUP2 PUSH1 0x0 BYTE SWAP1 MSTORE8 POP PUSH1 0x18 DUP4 PUSH4 0xFFFFFFFF AND SWAP1 SHR PUSH1 0xF8 SHL DUP2 PUSH1 0x3 DUP2 MLOAD DUP2 LT PUSH2 0x1116 JUMPI PUSH2 0x1115 PUSH2 0x14EE JUMP JUMPDEST JUMPDEST PUSH1 0x20 ADD ADD SWAP1 PUSH31 0xFFFFFFFFFFFFFFFFFFFFFFFFFFFFFFFFFFFFFFFFFFFFFFFFFFFFFFFFFFFFFF NOT AND SWAP1 DUP2 PUSH1 0x0 BYTE SWAP1 MSTORE8 POP DUP1 SWAP2 POP POP SWAP2 SWAP1 POP JUMP JUMPDEST PUSH1 0x40 MLOAD DUP1 PUSH1 0x40 ADD PUSH1 0x40 MSTORE DUP1 PUSH1 0x0 PUSH8 0xFFFFFFFFFFFFFFFF AND DUP2 MSTORE PUSH1 0x20 ADD PUSH1 0x0 PUSH8 0xFFFFFFFFFFFFFFFF AND DUP2 MSTORE POP SWAP1 JUMP JUMPDEST PUSH1 0x0 PUSH1 0x40 MLOAD SWAP1 POP SWAP1 JUMP JUMPDEST PUSH1 0x0 DUP1 REVERT JUMPDEST PUSH1 0x0 PUSH4 0xFFFFFFFF DUP3 AND SWAP1 POP SWAP2 SWAP1 POP JUMP JUMPDEST PUSH2 0x11A4 DUP2 PUSH2 0x118B JUMP JUMPDEST DUP2 EQ PUSH2 0x11AF JUMPI PUSH1 0x0 DUP1 REVERT JUMPDEST POP JUMP JUMPDEST PUSH1 0x0 DUP2 CALLDATALOAD SWAP1 POP PUSH2 0x11C1 DUP2 PUSH2 0x119B JUMP JUMPDEST SWAP3 SWAP2 POP POP JUMP JUMPDEST PUSH1 0x0 PUSH20 0xFFFFFFFFFFFFFFFFFFFFFFFFFFFFFFFFFFFFFFFF DUP3 AND SWAP1 POP SWAP2 SWAP1 POP JUMP JUMPDEST PUSH1 0x0 PUSH2 0x11F2 DUP3 PUSH2 0x11C7 JUMP JUMPDEST SWAP1 POP SWAP2 SWAP1 POP JUMP JUMPDEST PUSH2 0x1202 DUP2 PUSH2 0x11E7 JUMP JUMPDEST DUP2 EQ PUSH2 0x120D JUMPI PUSH1 0x0 DUP1 REVERT JUMPDEST POP JUMP JUMPDEST PUSH1 0x0 DUP2 CALLDATALOAD SWAP1 POP PUSH2 0x121F DUP2 PUSH2 0x11F9 JUMP JUMPDEST SWAP3 SWAP2 POP POP JUMP JUMPDEST PUSH1 0x0 DUP2 SWAP1 POP SWAP2 SWAP1 POP JUMP JUMPDEST PUSH2 0x1238 DUP2 PUSH2 0x1225 JUMP JUMPDEST DUP2 EQ PUSH2 0x1243 JUMPI PUSH1 0x0 DUP1 REVERT JUMPDEST POP JUMP JUMPDEST PUSH1 0x0 DUP2 CALLDATALOAD SWAP1 POP PUSH2 0x1255 DUP2 PUSH2 0x122F JUMP JUMPDEST SWAP3 SWAP2 POP POP JUMP JUMPDEST PUSH1 0x0 DUP1 PUSH1 0x0 PUSH1 0x60 DUP5 DUP7 SUB SLT ISZERO PUSH2 0x1274 JUMPI PUSH2 0x1273 PUSH2 0x1186 JUMP JUMPDEST JUMPDEST PUSH1 0x0 PUSH2 0x1282 DUP7 DUP3 DUP8 ADD PUSH2 0x11B2 JUMP JUMPDEST SWAP4 POP POP PUSH1 0x20 PUSH2 0x1293 DUP7 DUP3 DUP8 ADD PUSH2 0x1210 JUMP JUMPDEST SWAP3 POP POP PUSH1 0x40 PUSH2 0x12A4 DUP7 DUP3 DUP8 ADD PUSH2 0x1246 JUMP JUMPDEST SWAP2 POP POP SWAP3 POP SWAP3 POP SWAP3 JUMP JUMPDEST PUSH1 0x0 PUSH8 0xFFFFFFFFFFFFFFFF DUP3 AND SWAP1 POP SWAP2 SWAP1 POP JUMP JUMPDEST PUSH2 0x12CB DUP2 PUSH2 0x12AE JUMP JUMPDEST DUP3 MSTORE POP POP JUMP JUMPDEST PUSH2 0x12DA DUP2 PUSH2 0x1225 JUMP JUMPDEST DUP3 MSTORE POP POP JUMP JUMPDEST PUSH1 0x0 PUSH1 0x60 DUP3 ADD SWAP1 POP PUSH2 0x12F5 PUSH1 0x0 DUP4 ADD DUP7 PUSH2 0x12C2 JUMP JUMPDEST PUSH2 0x1302 PUSH1 0x20 DUP4 ADD DUP6 PUSH2 0x12C2 JUMP JUMPDEST PUSH2 0x130F PUSH1 0x40 DUP4 ADD DUP5 PUSH2 0x12D1 JUMP JUMPDEST SWAP5 SWAP4 POP POP POP POP JUMP JUMPDEST PUSH1 0x0 DUP1 PUSH1 0x0 DUP1 PUSH1 0x80 DUP6 DUP8 SUB SLT ISZERO PUSH2 0x1331 JUMPI PUSH2 0x1330 PUSH2 0x1186 JUMP JUMPDEST JUMPDEST PUSH1 0x0 PUSH2 0x133F DUP8 DUP3 DUP9 ADD PUSH2 0x11B2 JUMP JUMPDEST SWAP5 POP POP PUSH1 0x20 PUSH2 0x1350 DUP8 DUP3 DUP9 ADD PUSH2 0x1210 JUMP JUMPDEST SWAP4 POP POP PUSH1 0x40 PUSH2 0x1361 DUP8 DUP3 DUP9 ADD PUSH2 0x1210 JUMP JUMPDEST SWAP3 POP POP PUSH1 0x60 PUSH2 0x1372 DUP8 DUP3 DUP9 ADD PUSH2 0x1246 JUMP JUMPDEST SWAP2 POP POP SWAP3 SWAP6 SWAP2 SWAP5 POP SWAP3 POP JUMP JUMPDEST PUSH2 0x1387 DUP2 PUSH2 0x11E7 JUMP JUMPDEST DUP3 MSTORE POP POP JUMP JUMPDEST PUSH1 0x0 PUSH1 0x20 DUP3 ADD SWAP1 POP PUSH2 0x13A2 PUSH1 0x0 DUP4 ADD DUP5 PUSH2 0x137E JUMP JUMPDEST SWAP3 SWAP2 POP POP JUMP JUMPDEST PUSH1 0x0 DUP2 MLOAD SWAP1 POP SWAP2 SWAP1 POP JUMP JUMPDEST PUSH1 0x0 DUP3 DUP3 MSTORE PUSH1 0x20 DUP3 ADD SWAP1 POP SWAP3 SWAP2 POP POP JUMP JUMPDEST PUSH1 0x0 DUP2 SWAP1 POP PUSH1 0x20 DUP3 ADD SWAP1 POP SWAP2 SWAP1 POP JUMP JUMPDEST PUSH2 0x13DD DUP2 PUSH2 0x118B JUMP JUMPDEST DUP3 MSTORE POP POP JUMP JUMPDEST PUSH1 0x0 PUSH2 0x13EF DUP4 DUP4 PUSH2 0x13D4 JUMP JUMPDEST PUSH1 0x20 DUP4 ADD SWAP1 POP SWAP3 SWAP2 POP POP JUMP JUMPDEST PUSH1 0x0 PUSH1 0x20 DUP3 ADD SWAP1 POP SWAP2 SWAP1 POP JUMP JUMPDEST PUSH1 0x0 PUSH2 0x1413 DUP3 PUSH2 0x13A8 JUMP JUMPDEST PUSH2 0x141D DUP2 DUP6 PUSH2 0x13B3 JUMP JUMPDEST SWAP4 POP PUSH2 0x1428 DUP4 PUSH2 0x13C4 JUMP JUMPDEST DUP1 PUSH1 0x0 JUMPDEST DUP4 DUP2 LT ISZERO PUSH2 0x1459 JUMPI DUP2 MLOAD PUSH2 0x1440 DUP9 DUP3 PUSH2 0x13E3 JUMP JUMPDEST SWAP8 POP PUSH2 0x144B DUP4 PUSH2 0x13FB JUMP JUMPDEST SWAP3 POP POP PUSH1 0x1 DUP2 ADD SWAP1 POP PUSH2 0x142C JUMP JUMPDEST POP DUP6 SWAP4 POP POP POP POP SWAP3 SWAP2 POP POP JUMP JUMPDEST PUSH1 0x0 PUSH1 0x20 DUP3 ADD SWAP1 POP DUP2 DUP2 SUB PUSH1 0x0 DUP4 ADD MSTORE PUSH2 0x1480 DUP2 DUP5 PUSH2 0x1408 JUMP JUMPDEST SWAP1 POP SWAP3 SWAP2 POP POP JUMP JUMPDEST PUSH1 0x0 PUSH1 0x60 DUP3 ADD SWAP1 POP PUSH2 0x149D PUSH1 0x0 DUP4 ADD DUP7 PUSH2 0x137E JUMP JUMPDEST PUSH2 0x14AA PUSH1 0x20 DUP4 ADD DUP6 PUSH2 0x137E JUMP JUMPDEST PUSH2 0x14B7 PUSH1 0x40 DUP4 ADD DUP5 PUSH2 0x12D1 JUMP JUMPDEST SWAP5 SWAP4 POP POP POP POP JUMP JUMPDEST PUSH32 0x4E487B7100000000000000000000000000000000000000000000000000000000 PUSH1 0x0 MSTORE PUSH1 0x41 PUSH1 0x4 MSTORE PUSH1 0x24 PUSH1 0x0 REVERT JUMPDEST PUSH32 0x4E487B7100000000000000000000000000000000000000000000000000000000 PUSH1 0x0 MSTORE PUSH1 0x32 PUSH1 0x4 MSTORE PUSH1 0x24 PUSH1 0x0 REVERT JUMPDEST PUSH1 0x0 DUP3 DUP3 MSTORE PUSH1 0x20 DUP3 ADD SWAP1 POP SWAP3 SWAP2 POP POP JUMP JUMPDEST PUSH32 0x416D6F756E7420746F6F206C6172676500000000000000000000000000000000 PUSH1 0x0 DUP3 ADD MSTORE POP JUMP JUMPDEST PUSH1 0x0 PUSH2 0x1564 PUSH1 0x10 DUP4 PUSH2 0x151D JUMP JUMPDEST SWAP2 POP PUSH2 0x156F DUP3 PUSH2 0x152E JUMP JUMPDEST PUSH1 0x20 DUP3 ADD SWAP1 POP SWAP2 SWAP1 POP JUMP JUMPDEST PUSH1 0x0 PUSH1 0x20 DUP3 ADD SWAP1 POP DUP2 DUP2 SUB PUSH1 0x0 DUP4 ADD MSTORE PUSH2 0x1593 DUP2 PUSH2 0x1557 JUMP JUMPDEST SWAP1 POP SWAP2 SWAP1 POP JUMP JUMPDEST PUSH32 0x4E487B7100000000000000000000000000000000000000000000000000000000 PUSH1 0x0 MSTORE PUSH1 0x12 PUSH1 0x4 MSTORE PUSH1 0x24 PUSH1 0x0 REVERT JUMPDEST PUSH32 0x4E487B7100000000000000000000000000000000000000000000000000000000 PUSH1 0x0 MSTORE PUSH1 0x11 PUSH1 0x4 MSTORE PUSH1 0x24 PUSH1 0x0 REVERT JUMPDEST PUSH1 0x0 PUSH2 0x1603 DUP3 PUSH2 0x1225 JUMP JUMPDEST SWAP2 POP PUSH2 0x160E DUP4 PUSH2 0x1225 JUMP JUMPDEST SWAP3 POP DUP3 PUSH2 0x161E JUMPI PUSH2 0x161D PUSH2 0x159A JUMP JUMPDEST JUMPDEST DUP3 DUP3 DIV SWAP1 POP SWAP3 SWAP2 POP POP JUMP JUMPDEST PUSH32 0x416D6F756E74206D7573742062652067726561746572207468616E2030000000 PUSH1 0x0 DUP3 ADD MSTORE POP JUMP JUMPDEST PUSH1 0x0 PUSH2 0x165F PUSH1 0x1D DUP4 PUSH2 0x151D JUMP JUMPDEST SWAP2 POP PUSH2 0x166A DUP3 PUSH2 0x1629 JUMP JUMPDEST PUSH1 0x20 DUP3 ADD SWAP1 POP SWAP2 SWAP1 POP JUMP JUMPDEST PUSH1 0x0 PUSH1 0x20 DUP3 ADD SWAP1 POP DUP2 DUP2 SUB PUSH1 0x0 DUP4 ADD MSTORE PUSH2 0x168E DUP2 PUSH2 0x1652 JUMP JUMPDEST SWAP1 POP SWAP2 SWAP1 POP JUMP JUMPDEST PUSH1 0x0 DUP2 SWAP1 POP SWAP3 SWAP2 POP POP JUMP JUMPDEST PUSH32 0x100000000000000000000000000000000000000000000000000000000000000 PUSH1 0x0 DUP3 ADD MSTORE POP JUMP JUMPDEST PUSH1 0x0 PUSH2 0x16D6 PUSH1 0x1 DUP4 PUSH2 0x1695 JUMP JUMPDEST SWAP2 POP PUSH2 0x16E1 DUP3 PUSH2 0x16A0 JUMP JUMPDEST PUSH1 0x1 DUP3 ADD SWAP1 POP SWAP2 SWAP1 POP JUMP JUMPDEST PUSH32 0x300000000000000000000000000000000000000000000000000000000000000 PUSH1 0x0 DUP3 ADD MSTORE POP JUMP JUMPDEST PUSH1 0x0 PUSH2 0x1722 PUSH1 0x1 DUP4 PUSH2 0x1695 JUMP JUMPDEST SWAP2 POP PUSH2 0x172D DUP3 PUSH2 0x16EC JUMP JUMPDEST PUSH1 0x1 DUP3 ADD SWAP1 POP SWAP2 SWAP1 POP JUMP JUMPDEST PUSH1 0x0 DUP2 PUSH1 0x60 SHL SWAP1 POP SWAP2 SWAP1 POP JUMP JUMPDEST PUSH1 0x0 PUSH2 0x1750 DUP3 PUSH2 0x1738 JUMP JUMPDEST SWAP1 POP SWAP2 SWAP1 POP JUMP JUMPDEST PUSH1 0x0 PUSH2 0x1762 DUP3 PUSH2 0x1745 JUMP JUMPDEST SWAP1 POP SWAP2 SWAP1 POP JUMP JUMPDEST PUSH2 0x177A PUSH2 0x1775 DUP3 PUSH2 0x11E7 JUMP JUMPDEST PUSH2 0x1757 JUMP JUMPDEST DUP3 MSTORE POP POP JUMP JUMPDEST PUSH1 0x0 DUP1 DUP3 ADD MSTORE POP JUMP JUMPDEST PUSH1 0x0 PUSH2 0x1796 PUSH1 0x1 DUP4 PUSH2 0x1695 JUMP JUMPDEST SWAP2 POP PUSH2 0x17A1 DUP3 PUSH2 0x1780 JUMP JUMPDEST PUSH1 0x1 DUP3 ADD SWAP1 POP SWAP2 SWAP1 POP JUMP JUMPDEST PUSH1 0x0 PUSH2 0x17B7 DUP3 PUSH2 0x16C9 JUMP JUMPDEST SWAP2 POP PUSH2 0x17C2 DUP3 PUSH2 0x1715 JUMP JUMPDEST SWAP2 POP PUSH2 0x17CE DUP3 DUP5 PUSH2 0x1769 JUMP JUMPDEST PUSH1 0x14 DUP3 ADD SWAP2 POP PUSH2 0x17DD DUP3 PUSH2 0x1789 JUMP JUMPDEST SWAP2 POP DUP2 SWAP1 POP SWAP3 SWAP2 POP POP JUMP JUMPDEST PUSH1 0x0 DUP2 MLOAD SWAP1 POP SWAP2 SWAP1 POP JUMP JUMPDEST PUSH1 0x0 DUP2 SWAP1 POP SWAP3 SWAP2 POP POP JUMP JUMPDEST PUSH1 0x0 JUMPDEST DUP4 DUP2 LT ISZERO PUSH2 0x181C JUMPI DUP1 DUP3 ADD MLOAD DUP2 DUP5 ADD MSTORE PUSH1 0x20 DUP2 ADD SWAP1 POP PUSH2 0x1801 JUMP JUMPDEST PUSH1 0x0 DUP5 DUP5 ADD MSTORE POP POP POP POP JUMP JUMPDEST PUSH1 0x0 PUSH2 0x1833 DUP3 PUSH2 0x17E8 JUMP JUMPDEST PUSH2 0x183D DUP2 DUP6 PUSH2 0x17F3 JUMP JUMPDEST SWAP4 POP PUSH2 0x184D DUP2 DUP6 PUSH1 0x20 DUP7 ADD PUSH2 0x17FE JUMP JUMPDEST DUP1 DUP5 ADD SWAP2 POP POP SWAP3 SWAP2 POP POP JUMP JUMPDEST PUSH1 0x0 PUSH2 0x1865 DUP3 DUP6 PUSH2 0x1828 JUMP JUMPDEST SWAP2 POP PUSH2 0x1871 DUP3 DUP5 PUSH2 0x1828 JUMP JUMPDEST SWAP2 POP DUP2 SWAP1 POP SWAP4 SWAP3 POP POP POP JUMP JUMPDEST PUSH1 0x0 PUSH2 0x1889 DUP3 DUP9 PUSH2 0x1828 JUMP JUMPDEST SWAP2 POP PUSH2 0x1895 DUP3 DUP8 PUSH2 0x1828 JUMP JUMPDEST SWAP2 POP PUSH2 0x18A1 DUP3 DUP7 PUSH2 0x1828 JUMP JUMPDEST SWAP2 POP PUSH2 0x18AD DUP3 DUP6 PUSH2 0x1828 JUMP JUMPDEST SWAP2 POP PUSH2 0x18B9 DUP3 DUP5 PUSH2 0x1828 JUMP JUMPDEST SWAP2 POP DUP2 SWAP1 POP SWAP7 SWAP6 POP POP POP POP POP POP JUMP JUMPDEST PUSH1 0x0 PUSH2 0x18D3 DUP3 PUSH2 0x1715 JUMP JUMPDEST SWAP2 POP PUSH2 0x18DF DUP3 DUP5 PUSH2 0x1828 JUMP JUMPDEST SWAP2 POP DUP2 SWAP1 POP SWAP3 SWAP2 POP POP JUMP JUMPDEST PUSH1 0x0 DUP3 DUP3 MSTORE PUSH1 0x20 DUP3 ADD SWAP1 POP SWAP3 SWAP2 POP POP JUMP JUMPDEST PUSH1 0x0 PUSH1 0x1F NOT PUSH1 0x1F DUP4 ADD AND SWAP1 POP SWAP2 SWAP1 POP JUMP JUMPDEST PUSH1 0x0 PUSH2 0x1917 DUP3 PUSH2 0x17E8 JUMP JUMPDEST PUSH2 0x1921 DUP2 DUP6 PUSH2 0x18EA JUMP JUMPDEST SWAP4 POP PUSH2 0x1931 DUP2 DUP6 PUSH1 0x20 DUP7 ADD PUSH2 0x17FE JUMP JUMPDEST PUSH2 0x193A DUP2 PUSH2 0x18FB JUMP JUMPDEST DUP5 ADD SWAP2 POP POP SWAP3 SWAP2 POP POP JUMP JUMPDEST PUSH1 0x0 PUSH1 0x20 DUP3 ADD SWAP1 POP DUP2 DUP2 SUB PUSH1 0x0 DUP4 ADD MSTORE PUSH2 0x195F DUP2 DUP5 PUSH2 0x190C JUMP JUMPDEST SWAP1 POP SWAP3 SWAP2 POP POP JUMP JUMPDEST PUSH1 0x0 DUP1 REVERT JUMPDEST PUSH2 0x1975 DUP3 PUSH2 0x18FB JUMP JUMPDEST DUP2 ADD DUP2 DUP2 LT PUSH8 0xFFFFFFFFFFFFFFFF DUP3 GT OR ISZERO PUSH2 0x1994 JUMPI PUSH2 0x1993 PUSH2 0x14BF JUMP JUMPDEST JUMPDEST DUP1 PUSH1 0x40 MSTORE POP POP POP JUMP JUMPDEST PUSH1 0x0 PUSH2 0x19A7 PUSH2 0x117C JUMP JUMPDEST SWAP1 POP PUSH2 0x19B3 DUP3 DUP3 PUSH2 0x196C JUMP JUMPDEST SWAP2 SWAP1 POP JUMP JUMPDEST PUSH2 0x19C1 DUP2 PUSH2 0x12AE JUMP JUMPDEST DUP2 EQ PUSH2 0x19CC JUMPI PUSH1 0x0 DUP1 REVERT JUMPDEST POP JUMP JUMPDEST PUSH1 0x0 DUP2 MLOAD SWAP1 POP PUSH2 0x19DE DUP2 PUSH2 0x19B8 JUMP JUMPDEST SWAP3 SWAP2 POP POP JUMP JUMPDEST PUSH1 0x0 PUSH1 0x40 DUP3 DUP5 SUB SLT ISZERO PUSH2 0x19FA JUMPI PUSH2 0x19F9 PUSH2 0x1967 JUMP JUMPDEST JUMPDEST PUSH2 0x1A04 PUSH1 0x40 PUSH2 0x199D JUMP JUMPDEST SWAP1 POP PUSH1 0x0 PUSH2 0x1A14 DUP5 DUP3 DUP6 ADD PUSH2 0x19CF JUMP JUMPDEST PUSH1 0x0 DUP4 ADD MSTORE POP PUSH1 0x20 PUSH2 0x1A28 DUP5 DUP3 DUP6 ADD PUSH2 0x19CF JUMP JUMPDEST PUSH1 0x20 DUP4 ADD MSTORE POP SWAP3 SWAP2 POP POP JUMP JUMPDEST PUSH1 0x0 PUSH1 0x40 DUP3 DUP5 SUB SLT ISZERO PUSH2 0x1A4A JUMPI PUSH2 0x1A49 PUSH2 0x1186 JUMP JUMPDEST JUMPDEST PUSH1 0x0 PUSH2 0x1A58 DUP5 DUP3 DUP6 ADD PUSH2 0x19E4 JUMP JUMPDEST SWAP2 POP POP SWAP3 SWAP2 POP POP JUMP JUMPDEST PUSH1 0x0 PUSH2 0x1A6C DUP3 PUSH2 0x1225 JUMP JUMPDEST SWAP2 POP PUSH2 0x1A77 DUP4 PUSH2 0x1225 JUMP JUMPDEST SWAP3 POP DUP3 DUP3 MUL PUSH2 0x1A85 DUP2 PUSH2 0x1225 JUMP JUMPDEST SWAP2 POP DUP3 DUP3 DIV DUP5 EQ DUP4 ISZERO OR PUSH2 0x1A9C JUMPI PUSH2 0x1A9B PUSH2 0x15C9 JUMP JUMPDEST JUMPDEST POP SWAP3 SWAP2 POP POP JUMP JUMPDEST PUSH1 0x0 PUSH2 0x1AAE DUP3 PUSH2 0x1225 JUMP JUMPDEST SWAP2 POP PUSH2 0x1AB9 DUP4 PUSH2 0x1225 JUMP JUMPDEST SWAP3 POP DUP3 DUP3 ADD SWAP1 POP DUP1 DUP3 GT ISZERO PUSH2 0x1AD1 JUMPI PUSH2 0x1AD0 PUSH2 0x15C9 JUMP JUMPDEST JUMPDEST SWAP3 SWAP2 POP POP JUMP JUMPDEST PUSH2 0x1AE0 DUP2 PUSH2 0x12AE JUMP JUMPDEST DUP3 MSTORE POP POP JUMP JUMPDEST PUSH1 0x40 DUP3 ADD PUSH1 0x0 DUP3 ADD MLOAD PUSH2 0x1AFC PUSH1 0x0 DUP6 ADD DUP3 PUSH2 0x1AD7 JUMP JUMPDEST POP PUSH1 0x20 DUP3 ADD MLOAD PUSH2 0x1B0F PUSH1 0x20 DUP6 ADD DUP3 PUSH2 0x1AD7 JUMP JUMPDEST POP POP POP POP JUMP JUMPDEST PUSH1 0x0 PUSH1 0x60 DUP3 ADD SWAP1 POP DUP2 DUP2 SUB PUSH1 0x0 DUP4 ADD MSTORE PUSH2 0x1B2F DUP2 DUP6 PUSH2 0x190C JUMP JUMPDEST SWAP1 POP PUSH2 0x1B3E PUSH1 0x20 DUP4 ADD DUP5 PUSH2 0x1AE6 JUMP JUMPDEST SWAP4 SWAP3 POP POP POP JUMP JUMPDEST PUSH1 0x0 PUSH2 0x1B50 DUP3 PUSH2 0x1789 JUMP JUMPDEST SWAP2 POP PUSH2 0x1B5C DUP3 DUP5 PUSH2 0x1828 JUMP JUMPDEST SWAP2 POP DUP2 SWAP1 POP SWAP3 SWAP2 POP POP JUMP JUMPDEST PUSH1 0x0 PUSH2 0x1B72 DUP3 PUSH2 0x1789 JUMP JUMPDEST SWAP2 POP PUSH2 0x1B7E DUP3 DUP6 PUSH2 0x1828 JUMP JUMPDEST SWAP2 POP PUSH2 0x1B8A DUP3 DUP5 PUSH2 0x1828 JUMP JUMPDEST SWAP2 POP DUP2 SWAP1 POP SWAP4 SWAP3 POP POP POP JUMP JUMPDEST PUSH1 0x0 PUSH2 0x1BA2 DUP3 DUP5 PUSH2 0x1828 JUMP JUMPDEST SWAP2 POP DUP2 SWAP1 POP SWAP3 SWAP2 POP POP JUMP JUMPDEST PUSH1 0x0 PUSH2 0x1BB9 DUP3 DUP7 PUSH2 0x1828 JUMP JUMPDEST SWAP2 POP PUSH2 0x1BC5 DUP3 DUP6 PUSH2 0x1828 JUMP JUMPDEST SWAP2 POP PUSH2 0x1BD1 DUP3 DUP5 PUSH2 0x1828 JUMP JUMPDEST SWAP2 POP DUP2 SWAP1 POP SWAP5 SWAP4 POP POP POP POP JUMP JUMPDEST PUSH1 0x0 PUSH1 0xFF DUP3 AND SWAP1 POP SWAP2 SWAP1 POP JUMP JUMPDEST PUSH1 0x0 DUP2 PUSH1 0xF8 SHL SWAP1 POP SWAP2 SWAP1 POP JUMP JUMPDEST PUSH1 0x0 PUSH2 0x1C03 DUP3 PUSH2 0x1BEB JUMP JUMPDEST SWAP1 POP SWAP2 SWAP1 POP JUMP JUMPDEST PUSH2 0x1C1B PUSH2 0x1C16 DUP3 PUSH2 0x1BDE JUMP JUMPDEST PUSH2 0x1BF8 JUMP JUMPDEST DUP3 MSTORE POP POP JUMP JUMPDEST PUSH1 0x0 PUSH2 0x1C2D DUP3 DUP5 PUSH2 0x1C0A JUMP JUMPDEST PUSH1 0x1 DUP3 ADD SWAP2 POP DUP2 SWAP1 POP SWAP3 SWAP2 POP POP JUMP JUMPDEST PUSH1 0x0 PUSH2 0x1C47 DUP3 PUSH2 0x1225 JUMP JUMPDEST SWAP2 POP PUSH32 0xFFFFFFFFFFFFFFFFFFFFFFFFFFFFFFFFFFFFFFFFFFFFFFFFFFFFFFFFFFFFFFFF DUP3 SUB PUSH2 0x1C79 JUMPI PUSH2 0x1C78 PUSH2 0x15C9 JUMP JUMPDEST JUMPDEST PUSH1 0x1 DUP3 ADD SWAP1 POP SWAP2 SWAP1 POP JUMP JUMPDEST PUSH1 0x0 PUSH2 0x1C8F DUP3 PUSH2 0x1225 JUMP JUMPDEST SWAP2 POP PUSH2 0x1C9A DUP4 PUSH2 0x1225 JUMP JUMPDEST SWAP3 POP DUP3 DUP3 SUB SWAP1 POP DUP2 DUP2 GT ISZERO PUSH2 0x1CB2 JUMPI PUSH2 0x1CB1 PUSH2 0x15C9 JUMP JUMPDEST JUMPDEST SWAP3 SWAP2 POP POP JUMP JUMPDEST PUSH1 0x0 PUSH2 0x1CC3 DUP3 PUSH2 0x12AE JUMP JUMPDEST SWAP2 POP PUSH2 0x1CCE DUP4 PUSH2 0x12AE JUMP JUMPDEST SWAP3 POP DUP3 DUP3 ADD SWAP1 POP PUSH8 0xFFFFFFFFFFFFFFFF DUP2 GT ISZERO PUSH2 0x1CEE JUMPI PUSH2 0x1CED PUSH2 0x15C9 JUMP JUMPDEST JUMPDEST SWAP3 SWAP2 POP POP JUMP INVALID LOG2 PUSH5 0x6970667358 0x22 SLT KECCAK256 PUSH15 0xFA39C02BBBD171F43893BBE938950B SWAP9 0x4F 0xC1 CODESIZE ADD NOT PC SWAP3 PUSH8 0x609ABB60EF0C0F64 PUSH20 0x6F6C634300081C00330000000000000000000000 "},"methodIdentifiers":{"estimateFee(uint32,address,uint256)":"2a092d5a","getSupportedChains()":"c4bffe2b","owner()":"8da5cb5b","transfer(uint32,address,address,uint256)":"3ab4a1f8"}}}}}