{
  "_format": "hh-sol-artifact-1",
  "contractName": "XCMProgramTest",
  "sourceName": "contracts/test-helpers/XCMProgramTest.sol",
  "abi": [
    {
      "inputs": [
        {
          "internalType": "bytes",
          "name": "assetLocation",
          "type": "bytes"
        },
        {
          "internalType": "uint128",
          "name": "amount",
          "type": "uint128"
        },
        {
          "internalType": "uint128",
          "name": "feeAmount",
          "type": "uint128"
        },
        {
          "internalType": "bytes",
          "name": "beneficiary",
          "type": "bytes"
        }
      ],
      "name": "testBuildReserveTransfer",
      "outputs": [
        {
          "internalType": "bytes",
          "name": "",
          "type": "bytes"
        }
      ],
      "stateMutability": "pure",
      "type": "function"
    },
    {
      "inputs": [
        {
          "internalType": "bytes",
          "name": "assetLocation",
          "type": "bytes"
        },
        {
          "internalType": "uint128",
          "name": "amount",
          "type": "uint128"
        },
        {
          "internalType": "uint128",
          "name": "feeAmount",
          "type": "uint128"
        },
        {
          "internalType": "bytes",
          "name": "beneficiary",
          "type": "bytes"
        }
      ],
      "name": "testBuildTeleport",
      "outputs": [
        {
          "internalType": "bytes",
          "name": "",
          "type": "bytes"
        }
      ],
      "stateMutability": "pure",
      "type": "function"
    },
    {
      "inputs": [
        {
          "internalType": "bytes",
          "name": "assetLocation",
          "type": "bytes"
        },
        {
          "internalType": "uint128",
          "name": "feeAmount",
          "type": "uint128"
        }
      ],
      "name": "testBuyExecution",
      "outputs": [
        {
          "internalType": "bytes",
          "name": "",
          "type": "bytes"
        }
      ],
      "stateMutability": "pure",
      "type": "function"
    },
    {
      "inputs": [],
      "name": "testClearOrigin",
      "outputs": [
        {
          "internalType": "bytes",
          "name": "",
          "type": "bytes"
        }
      ],
      "stateMutability": "pure",
      "type": "function"
    },
    {
      "inputs": [
        {
          "internalType": "bytes",
          "name": "beneficiary",
          "type": "bytes"
        }
      ],
      "name": "testDepositAsset",
      "outputs": [
        {
          "internalType": "bytes",
          "name": "",
          "type": "bytes"
        }
      ],
      "stateMutability": "pure",
      "type": "function"
    },
    {
      "inputs": [
        {
          "internalType": "bytes",
          "name": "assetLocation",
          "type": "bytes"
        },
        {
          "internalType": "uint128",
          "name": "amount",
          "type": "uint128"
        }
      ],
      "name": "testWithdrawAsset",
      "outputs": [
        {
          "internalType": "bytes",
          "name": "",
          "type": "bytes"
        }
      ],
      "stateMutability": "pure",
      "type": "function"
    }
  ],
  "bytecode": "0x6080604052348015600f57600080fd5b506112688061001f6000396000f3fe608060405234801561001057600080fd5b50600436106100625760003560e01c80634349099b146100675780637b2ee6881461009757806386baf3d0146100c7578063d251c173146100f7578063e2dbd08b14610127578063eb01ecec14610157575b600080fd5b610081600480360381019061007c9190610cac565b610175565b60405161008e9190610dca565b60405180910390f35b6100b160048036038101906100ac9190610dec565b61018d565b6040516100be9190610dca565b60405180910390f35b6100e160048036038101906100dc9190610dec565b6101a1565b6040516100ee9190610dca565b60405180910390f35b610111600480360381019061010c9190610e48565b6101b5565b60405161011e9190610dca565b60405180910390f35b610141600480360381019061013c9190610cac565b6101c7565b60405161014e9190610dca565b60405180910390f35b61015f6101df565b60405161016c9190610dca565b60405180910390f35b6060610183858585856101ee565b9050949350505050565b60606101998383610342565b905092915050565b60606101ad838361040d565b905092915050565b60606101c0826104c6565b9050919050565b60606101d585858585610537565b9050949350505050565b60606101e96105d2565b905090565b6060600061020d856fffffffffffffffffffffffffffffffff16610602565b60405160200161021d9190610f04565b604051602081830303815290604052905060008682604051602001610243929190610f26565b604051602081830303815290604052905060006102606001610602565b82604051602001610272929190610f55565b6040516020818303038152906040529050600061028f60036108cf565b82876040516020016102a393929190610f79565b604051602081830303815290604052905060006102be6105d2565b905060006102cc8b8a61040d565b905060006102d9896104c6565b905060006102e76004610602565b858585856040516020016102ff959493929190610faa565b6040516020818303038152906040529050806040516020016103219190611041565b60405160208183030381529060405298505050505050505050949350505050565b60606000610361836fffffffffffffffffffffffffffffffff16610602565b6040516020016103719190610f04565b604051602081830303815290604052905060008482604051602001610397929190610f26565b604051602081830303815290604052905060006103b46001610602565b826040516020016103c6929190610f55565b60405160208183030381529060405290506103e160046108cf565b816040516020016103f3929190610f55565b604051602081830303815290604052935050505092915050565b6060600061042c836fffffffffffffffffffffffffffffffff16610602565b60405160200161043c9190610f04565b604051602081830303815290604052905060008482604051602001610462929190610f26565b604051602081830303815290604052905060006040518060400160405280600181526020016000815250905061049860086108cf565b82826040516020016104ac93929190610f79565b604051602081830303815290604052935050505092915050565b606060006040518060400160405280600181526020017f0100000000000000000000000000000000000000000000000000000000000000815250905061050c60126108cf565b818460405160200161052093929190610f79565b604051602081830303815290604052915050919050565b606060006105458686610342565b905060006105516105d2565b9050600061055f888761040d565b9050600061056c866104c6565b9050600061057a6004610602565b85858585604051602001610592959493929190610faa565b6040516020818303038152906040529050806040516020016105b49190611041565b60405160208183030381529060405295505050505050949350505050565b60606105de600d6108cf565b6040516020016105ee9190611063565b604051602081830303815290604052905090565b6060604082101561063857600282901b60405160200161062291906110bd565b60405160208183030381529060405290506108ca565b6140008210156107405760006001600284901b1790506000600267ffffffffffffffff81111561066b5761066a610b39565b5b6040519080825280601f01601f19166020018201604052801561069d5781602001600182028036833780820191505090505b5090508160f81b816000815181106106b8576106b76110d8565b5b60200101907effffffffffffffffffffffffffffffffffffffffffffffffffffffffffffff1916908160001a90535060088261ffff16901c60f81b81600181518110610707576107066110d8565b5b60200101907effffffffffffffffffffffffffffffffffffffffffffffffffffffffffffff1916908160001a90535080925050506108ca565b634000000082101561076857600060028084901b17905061076081610973565b9150506108ca565b6000808390505b600081111561079257818061078390611140565b925050600881901c905061076f565b60006001836107a19190611188565b67ffffffffffffffff8111156107ba576107b9610b39565b5b6040519080825280601f01601f1916602001820160405280156107ec5781602001600182028036833780820191505090505b5090506003600260048561080091906111bc565b901b1760f81b8160008151811061081a576108196110d8565b5b60200101907effffffffffffffffffffffffffffffffffffffffffffffffffffffffffffff1916908160001a90535060005b838110156108c25760088161086191906111f0565b86901c60f81b826001836108759190611188565b81518110610886576108856110d8565b5b60200101907effffffffffffffffffffffffffffffffffffffffffffffffffffffffffffff1916908160001a905350808060010191505061084c565b508093505050505b919050565b60606000600167ffffffffffffffff8111156108ee576108ed610b39565b5b6040519080825280601f01601f1916602001820160405280156109205781602001600182028036833780820191505090505b5090508260f81b8160008151811061093b5761093a6110d8565b5b60200101907effffffffffffffffffffffffffffffffffffffffffffffffffffffffffffff1916908160001a90535080915050919050565b60606000600467ffffffffffffffff81111561099257610991610b39565b5b6040519080825280601f01601f1916602001820160405280156109c45781602001600182028036833780820191505090505b5090508260f81b816000815181106109df576109de6110d8565b5b60200101907effffffffffffffffffffffffffffffffffffffffffffffffffffffffffffff1916908160001a90535060088363ffffffff16901c60f81b81600181518110610a3057610a2f6110d8565b5b60200101907effffffffffffffffffffffffffffffffffffffffffffffffffffffffffffff1916908160001a90535060108363ffffffff16901c60f81b81600281518110610a8157610a806110d8565b5b60200101907effffffffffffffffffffffffffffffffffffffffffffffffffffffffffffff1916908160001a90535060188363ffffffff16901c60f81b81600381518110610ad257610ad16110d8565b5b60200101907effffffffffffffffffffffffffffffffffffffffffffffffffffffffffffff1916908160001a90535080915050919050565b6000604051905090565b600080fd5b600080fd5b600080fd5b600080fd5b6000601f19601f8301169050919050565b7f4e487b7100000000000000000000000000000000000000000000000000000000600052604160045260246000fd5b610b7182610b28565b810181811067ffffffffffffffff82111715610b9057610b8f610b39565b5b80604052505050565b6000610ba3610b0a565b9050610baf8282610b68565b919050565b600067ffffffffffffffff821115610bcf57610bce610b39565b5b610bd882610b28565b9050602081019050919050565b82818337600083830152505050565b6000610c07610c0284610bb4565b610b99565b905082815260208101848484011115610c2357610c22610b23565b5b610c2e848285610be5565b509392505050565b600082601f830112610c4b57610c4a610b1e565b5b8135610c5b848260208601610bf4565b91505092915050565b60006fffffffffffffffffffffffffffffffff82169050919050565b610c8981610c64565b8114610c9457600080fd5b50565b600081359050610ca681610c80565b92915050565b60008060008060808587031215610cc657610cc5610b14565b5b600085013567ffffffffffffffff811115610ce457610ce3610b19565b5b610cf087828801610c36565b9450506020610d0187828801610c97565b9350506040610d1287828801610c97565b925050606085013567ffffffffffffffff811115610d3357610d32610b19565b5b610d3f87828801610c36565b91505092959194509250565b600081519050919050565b600082825260208201905092915050565b60005b83811015610d85578082015181840152602081019050610d6a565b60008484015250505050565b6000610d9c82610d4b565b610da68185610d56565b9350610db6818560208601610d67565b610dbf81610b28565b840191505092915050565b60006020820190508181036000830152610de48184610d91565b905092915050565b60008060408385031215610e0357610e02610b14565b5b600083013567ffffffffffffffff811115610e2157610e20610b19565b5b610e2d85828601610c36565b9250506020610e3e85828601610c97565b9150509250929050565b600060208284031215610e5e57610e5d610b14565b5b600082013567ffffffffffffffff811115610e7c57610e7b610b19565b5b610e8884828501610c36565b91505092915050565b600081905092915050565b60008082015250565b6000610eb2600183610e91565b9150610ebd82610e9c565b600182019050919050565b600081905092915050565b6000610ede82610d4b565b610ee88185610ec8565b9350610ef8818560208601610d67565b80840191505092915050565b6000610f0f82610ea5565b9150610f1b8284610ed3565b915081905092915050565b6000610f3182610ea5565b9150610f3d8285610ed3565b9150610f498284610ed3565b91508190509392505050565b6000610f618285610ed3565b9150610f6d8284610ed3565b91508190509392505050565b6000610f858286610ed3565b9150610f918285610ed3565b9150610f9d8284610ed3565b9150819050949350505050565b6000610fb68288610ed3565b9150610fc28287610ed3565b9150610fce8286610ed3565b9150610fda8285610ed3565b9150610fe68284610ed3565b91508190509695505050505050565b7f0300000000000000000000000000000000000000000000000000000000000000600082015250565b600061102b600183610e91565b915061103682610ff5565b600182019050919050565b600061104c8261101e565b91506110588284610ed3565b915081905092915050565b600061106f8284610ed3565b915081905092915050565b600060ff82169050919050565b60008160f81b9050919050565b600061109f82611087565b9050919050565b6110b76110b28261107a565b611094565b82525050565b60006110c982846110a6565b60018201915081905092915050565b7f4e487b7100000000000000000000000000000000000000000000000000000000600052603260045260246000fd5b7f4e487b7100000000000000000000000000000000000000000000000000000000600052601160045260246000fd5b6000819050919050565b600061114b82611136565b91507fffffffffffffffffffffffffffffffffffffffffffffffffffffffffffffffff820361117d5761117c611107565b5b600182019050919050565b600061119382611136565b915061119e83611136565b92508282019050808211156111b6576111b5611107565b5b92915050565b60006111c782611136565b91506111d283611136565b92508282039050818111156111ea576111e9611107565b5b92915050565b60006111fb82611136565b915061120683611136565b925082820261121481611136565b9150828204841483151761122b5761122a611107565b5b509291505056fea2646970667358221220fe45d4675b08e077ecde99cafc450dab2f439a30528b290f9970f65ae32ad6ec64736f6c634300081c0033",
  "linkReferences": {},
  "deployedLinkReferences": {}
}