{
  "_format": "hh-sol-artifact-1",
  "contractName": "XCMBridge",
  "sourceName": "contracts/XCMBridge.sol",
  "abi": [
    {
      "inputs": [],
      "stateMutability": "nonpayable",
      "type": "constructor"
    },
    {
      "inputs": [],
      "name": "NotOwner",
      "type": "error"
    },
    {
      "inputs": [],
      "name": "ReentrantCall",
      "type": "error"
    },
    {
      "inputs": [],
      "name": "ZeroAmount",
      "type": "error"
    },
    {
      "inputs": [],
      "name": "ZeroRecipient",
      "type": "error"
    },
    {
      "anonymous": false,
      "inputs": [
        {
          "indexed": true,
          "internalType": "uint32",
          "name": "destinationParaId",
          "type": "uint32"
        },
        {
          "indexed": false,
          "internalType": "uint64",
          "name": "refTime",
          "type": "uint64"
        },
        {
          "indexed": false,
          "internalType": "uint64",
          "name": "proofSize",
          "type": "uint64"
        },
        {
          "indexed": false,
          "internalType": "uint256",
          "name": "feePas",
          "type": "uint256"
        }
      ],
      "name": "FeeEstimated",
      "type": "event"
    },
    {
      "anonymous": false,
      "inputs": [
        {
          "indexed": true,
          "internalType": "address",
          "name": "sender",
          "type": "address"
        },
        {
          "indexed": true,
          "internalType": "uint32",
          "name": "destinationParaId",
          "type": "uint32"
        },
        {
          "indexed": false,
          "internalType": "address",
          "name": "recipient",
          "type": "address"
        },
        {
          "indexed": false,
          "internalType": "address",
          "name": "token",
          "type": "address"
        },
        {
          "indexed": false,
          "internalType": "uint256",
          "name": "amount",
          "type": "uint256"
        }
      ],
      "name": "TransferInitiated",
      "type": "event"
    },
    {
      "inputs": [
        {
          "internalType": "uint32",
          "name": "destinationParaId",
          "type": "uint32"
        },
        {
          "internalType": "address",
          "name": "token",
          "type": "address"
        },
        {
          "internalType": "uint256",
          "name": "amount",
          "type": "uint256"
        }
      ],
      "name": "estimateFee",
      "outputs": [
        {
          "internalType": "uint64",
          "name": "refTime",
          "type": "uint64"
        },
        {
          "internalType": "uint64",
          "name": "proofSize",
          "type": "uint64"
        },
        {
          "internalType": "uint256",
          "name": "feePas",
          "type": "uint256"
        }
      ],
      "stateMutability": "view",
      "type": "function"
    },
    {
      "inputs": [],
      "name": "getSupportedChains",
      "outputs": [
        {
          "internalType": "uint32[]",
          "name": "",
          "type": "uint32[]"
        }
      ],
      "stateMutability": "pure",
      "type": "function"
    },
    {
      "inputs": [],
      "name": "owner",
      "outputs": [
        {
          "internalType": "address",
          "name": "",
          "type": "address"
        }
      ],
      "stateMutability": "view",
      "type": "function"
    },
    {
      "inputs": [
        {
          "internalType": "uint32",
          "name": "destinationParaId",
          "type": "uint32"
        },
        {
          "internalType": "address",
          "name": "recipient",
          "type": "address"
        },
        {
          "internalType": "address",
          "name": "token",
          "type": "address"
        },
        {
          "internalType": "uint256",
          "name": "amount",
          "type": "uint256"
        }
      ],
      "name": "transfer",
      "outputs": [],
      "stateMutability": "nonpayable",
      "type": "function"
    }
  ],
  "bytecode": "0x6080604052348015600f57600080fd5b50336000806101000a81548173ffffffffffffffffffffffffffffffffffffffff021916908373ffffffffffffffffffffffffffffffffffffffff160217905550611d2a8061005f6000396000f3fe608060405234801561001057600080fd5b506004361061004c5760003560e01c80632a092d5a146100515780633ab4a1f8146100835780638da5cb5b1461009f578063c4bffe2b146100bd575b600080fd5b61006b6004803603810190610066919061125b565b6100db565b60405161007a939291906112e0565b60405180910390f35b61009d60048036038101906100989190611317565b61010e565b005b6100a7610295565b6040516100b4919061138d565b60405180910390f35b6100c56102b9565b6040516100d29190611466565b60405180910390f35b60008060008060006100ee888888610467565b915091508160000151826020015182945094509450505093509350939050565b600060149054906101000a900460ff1615610155576040517f37ed32e800000000000000000000000000000000000000000000000000000000815260040160405180910390fd5b6001600060146101000a81548160ff021916908315150217905550600081036101aa576040517f1f2a200500000000000000000000000000000000000000000000000000000000815260040160405180910390fd5b600073ffffffffffffffffffffffffffffffffffffffff168373ffffffffffffffffffffffffffffffffffffffff1603610210576040517fd27b444300000000000000000000000000000000000000000000000000000000815260040160405180910390fd5b61021c84848484610548565b8363ffffffff163373ffffffffffffffffffffffffffffffffffffffff167f3f5cab1bcea04cb38f44548d0e221c824bb2e92c08870e65c49a5205f26aaa1485858560405161026d93929190611488565b60405180910390a360008060146101000a81548160ff02191690831515021790555050505050565b60008054906101000a900473ffffffffffffffffffffffffffffffffffffffff1681565b60606000600767ffffffffffffffff8111156102d8576102d76114bf565b5b6040519080825280602002602001820160405280156103065781602001602082028036833780820191505090505b5090506103e8816000815181106103205761031f6114ee565b5b602002602001019063ffffffff16908163ffffffff16815250506103ea81600181518110610351576103506114ee565b5b602002602001019063ffffffff16908163ffffffff16815250506107f281600281518110610382576103816114ee565b5b602002602001019063ffffffff16908163ffffffff16815250506107d4816003815181106103b3576103b26114ee565b5b602002602001019063ffffffff16908163ffffffff16815250506107d6816004815181106103e4576103e36114ee565b5b602002602001019063ffffffff16908163ffffffff16815250506107d081600581518110610415576104146114ee565b5b602002602001019063ffffffff16908163ffffffff16815250506107ee81600681518110610446576104456114ee565b5b602002602001019063ffffffff16908163ffffffff16815250508091505090565b61046f61114e565b60006fffffffffffffffffffffffffffffffff80168311156104c6576040517f08c379a00000000000000000000000000000000000000000000000000000000081526004016104bd9061157a565b60405180910390fd5b60006104d185610653565b905060006104df6000610664565b90506000600a866104f091906115f8565b9050620f4240816fffffffffffffffffffffffffffffffff16101561051657620f424090505b6000610524848884866106c3565b905061052f8161075e565b955061053a816107ef565b945050505050935093915050565b6000811161058b576040517f08c379a000000000000000000000000000000000000000000000000000000000815260040161058290611675565b60405180910390fd5b6fffffffffffffffffffffffffffffffff80168111156105e0576040517f08c379a00000000000000000000000000000000000000000000000000000000081526004016105d79061157a565b60405180910390fd5b60006105eb83610653565b905060006105f885610664565b90506000600a8461060991906115f8565b9050620f4240816fffffffffffffffffffffffffffffffff16101561062f57620f424090505b600061063d848684866106c3565b90506106488161086d565b505050505050505050565b606061065d61090b565b9050919050565b60606000610672600061095f565b905060008360405160200161068791906117ac565b604051602081830303815290604052905081816040516020016106ab929190611859565b60405160208183030381529060405292505050919050565b606060006106d18686610a03565b905060006106dd610ace565b905060006106eb8887610afe565b905060006106f886610bb7565b905060006107066004610c28565b8585858560405160200161071e95949392919061187d565b60405160208183030381529060405290508060405160200161074091906118c8565b60405160208183030381529060405295505050505050949350505050565b61076661114e565b6000620a000090508073ffffffffffffffffffffffffffffffffffffffff166347400c23846040518263ffffffff1660e01b81526004016107a79190611945565b6040805180830381865afa1580156107c3573d6000803e3d6000fd5b505050506040513d601f19601f820116820180604052508101906107e79190611a34565b915050919050565b6000806107fb8361075e565b90506000633b9aca006064836000015167ffffffffffffffff1661081f9190611a61565b61082991906115f8565b90506000610400600a846020015167ffffffffffffffff1661084b9190611a61565b61085591906115f8565b905080826108639190611aa3565b9350505050919050565b6000806108798361075e565b90506000610888826014610ef5565b90506000620a000090508073ffffffffffffffffffffffffffffffffffffffff1663d3b7e04d86846040518363ffffffff1660e01b81526004016108cd929190611b15565b600060405180830381600087803b1580156108e757600080fd5b505af11580156108fb573d6000803e3d6000fd5b5050505060019350505050919050565b60606000610919600061095f565b90506000604051806040016040528060018152602001600081525090508181604051602001610949929190611859565b6040516020818303038152906040529250505090565b60606000600167ffffffffffffffff81111561097e5761097d6114bf565b5b6040519080825280601f01601f1916602001820160405280156109b05781602001600182028036833780820191505090505b5090508260f81b816000815181106109cb576109ca6114ee565b5b60200101907effffffffffffffffffffffffffffffffffffffffffffffffffffffffffffff1916908160001a90535080915050919050565b60606000610a22836fffffffffffffffffffffffffffffffff16610c28565b604051602001610a329190611b45565b604051602081830303815290604052905060008482604051602001610a58929190611b67565b60405160208183030381529060405290506000610a756001610c28565b82604051602001610a87929190611859565b6040516020818303038152906040529050610aa2600461095f565b81604051602001610ab4929190611859565b604051602081830303815290604052935050505092915050565b6060610ada600d61095f565b604051602001610aea9190611b96565b604051602081830303815290604052905090565b60606000610b1d836fffffffffffffffffffffffffffffffff16610c28565b604051602001610b2d9190611b45565b604051602081830303815290604052905060008482604051602001610b53929190611b67565b6040516020818303038152906040529050600060405180604001604052806001815260200160008152509050610b89600861095f565b8282604051602001610b9d93929190611bad565b604051602081830303815290604052935050505092915050565b606060006040518060400160405280600181526020017f01000000000000000000000000000000000000000000000000000000000000008152509050610bfd601261095f565b8184604051602001610c1193929190611bad565b604051602081830303815290604052915050919050565b60606040821015610c5e57600282901b604051602001610c489190611c21565b6040516020818303038152906040529050610ef0565b614000821015610d665760006001600284901b1790506000600267ffffffffffffffff811115610c9157610c906114bf565b5b6040519080825280601f01601f191660200182016040528015610cc35781602001600182028036833780820191505090505b5090508160f81b81600081518110610cde57610cdd6114ee565b5b60200101907effffffffffffffffffffffffffffffffffffffffffffffffffffffffffffff1916908160001a90535060088261ffff16901c60f81b81600181518110610d2d57610d2c6114ee565b5b60200101907effffffffffffffffffffffffffffffffffffffffffffffffffffffffffffff1916908160001a9053508092505050610ef0565b6340000000821015610d8e57600060028084901b179050610d8681610fb7565b915050610ef0565b6000808390505b6000811115610db8578180610da990611c3c565b925050600881901c9050610d95565b6000600183610dc79190611aa3565b67ffffffffffffffff811115610de057610ddf6114bf565b5b6040519080825280601f01601f191660200182016040528015610e125781602001600182028036833780820191505090505b50905060036002600485610e269190611c84565b901b1760f81b81600081518110610e4057610e3f6114ee565b5b60200101907effffffffffffffffffffffffffffffffffffffffffffffffffffffffffffff1916908160001a90535060005b83811015610ee857600881610e879190611a61565b86901c60f81b82600183610e9b9190611aa3565b81518110610eac57610eab6114ee565b5b60200101907effffffffffffffffffffffffffffffffffffffffffffffffffffffffffffff1916908160001a9053508080600101915050610e72565b508093505050505b919050565b610efd61114e565b610f0561114e565b606483856000015167ffffffffffffffff16610f219190611a61565b610f2b91906115f8565b8460000151610f3a9190611cb8565b816000019067ffffffffffffffff16908167ffffffffffffffff1681525050606483856020015167ffffffffffffffff16610f759190611a61565b610f7f91906115f8565b8460200151610f8e9190611cb8565b816020019067ffffffffffffffff16908167ffffffffffffffff16815250508091505092915050565b60606000600467ffffffffffffffff811115610fd657610fd56114bf565b5b6040519080825280601f01601f1916602001820160405280156110085781602001600182028036833780820191505090505b5090508260f81b81600081518110611023576110226114ee565b5b60200101907effffffffffffffffffffffffffffffffffffffffffffffffffffffffffffff1916908160001a90535060088363ffffffff16901c60f81b81600181518110611074576110736114ee565b5b60200101907effffffffffffffffffffffffffffffffffffffffffffffffffffffffffffff1916908160001a90535060108363ffffffff16901c60f81b816002815181106110c5576110c46114ee565b5b60200101907effffffffffffffffffffffffffffffffffffffffffffffffffffffffffffff1916908160001a90535060188363ffffffff16901c60f81b81600381518110611116576111156114ee565b5b60200101907effffffffffffffffffffffffffffffffffffffffffffffffffffffffffffff1916908160001a90535080915050919050565b6040518060400160405280600067ffffffffffffffff168152602001600067ffffffffffffffff1681525090565b6000604051905090565b600080fd5b600063ffffffff82169050919050565b6111a48161118b565b81146111af57600080fd5b50565b6000813590506111c18161119b565b92915050565b600073ffffffffffffffffffffffffffffffffffffffff82169050919050565b60006111f2826111c7565b9050919050565b611202816111e7565b811461120d57600080fd5b50565b60008135905061121f816111f9565b92915050565b6000819050919050565b61123881611225565b811461124357600080fd5b50565b6000813590506112558161122f565b92915050565b60008060006060848603121561127457611273611186565b5b6000611282868287016111b2565b935050602061129386828701611210565b92505060406112a486828701611246565b9150509250925092565b600067ffffffffffffffff82169050919050565b6112cb816112ae565b82525050565b6112da81611225565b82525050565b60006060820190506112f560008301866112c2565b61130260208301856112c2565b61130f60408301846112d1565b949350505050565b6000806000806080858703121561133157611330611186565b5b600061133f878288016111b2565b945050602061135087828801611210565b935050604061136187828801611210565b925050606061137287828801611246565b91505092959194509250565b611387816111e7565b82525050565b60006020820190506113a2600083018461137e565b92915050565b600081519050919050565b600082825260208201905092915050565b6000819050602082019050919050565b6113dd8161118b565b82525050565b60006113ef83836113d4565b60208301905092915050565b6000602082019050919050565b6000611413826113a8565b61141d81856113b3565b9350611428836113c4565b8060005b8381101561145957815161144088826113e3565b975061144b836113fb565b92505060018101905061142c565b5085935050505092915050565b600060208201905081810360008301526114808184611408565b905092915050565b600060608201905061149d600083018661137e565b6114aa602083018561137e565b6114b760408301846112d1565b949350505050565b7f4e487b7100000000000000000000000000000000000000000000000000000000600052604160045260246000fd5b7f4e487b7100000000000000000000000000000000000000000000000000000000600052603260045260246000fd5b600082825260208201905092915050565b7f416d6f756e7420746f6f206c6172676500000000000000000000000000000000600082015250565b600061156460108361151d565b915061156f8261152e565b602082019050919050565b6000602082019050818103600083015261159381611557565b9050919050565b7f4e487b7100000000000000000000000000000000000000000000000000000000600052601260045260246000fd5b7f4e487b7100000000000000000000000000000000000000000000000000000000600052601160045260246000fd5b600061160382611225565b915061160e83611225565b92508261161e5761161d61159a565b5b828204905092915050565b7f416d6f756e74206d7573742062652067726561746572207468616e2030000000600082015250565b600061165f601d8361151d565b915061166a82611629565b602082019050919050565b6000602082019050818103600083015261168e81611652565b9050919050565b600081905092915050565b7f0100000000000000000000000000000000000000000000000000000000000000600082015250565b60006116d6600183611695565b91506116e1826116a0565b600182019050919050565b7f0300000000000000000000000000000000000000000000000000000000000000600082015250565b6000611722600183611695565b915061172d826116ec565b600182019050919050565b60008160601b9050919050565b600061175082611738565b9050919050565b600061176282611745565b9050919050565b61177a611775826111e7565b611757565b82525050565b60008082015250565b6000611796600183611695565b91506117a182611780565b600182019050919050565b60006117b7826116c9565b91506117c282611715565b91506117ce8284611769565b6014820191506117dd82611789565b915081905092915050565b600081519050919050565b600081905092915050565b60005b8381101561181c578082015181840152602081019050611801565b60008484015250505050565b6000611833826117e8565b61183d81856117f3565b935061184d8185602086016117fe565b80840191505092915050565b60006118658285611828565b91506118718284611828565b91508190509392505050565b60006118898288611828565b91506118958287611828565b91506118a18286611828565b91506118ad8285611828565b91506118b98284611828565b91508190509695505050505050565b60006118d382611715565b91506118df8284611828565b915081905092915050565b600082825260208201905092915050565b6000601f19601f8301169050919050565b6000611917826117e8565b61192181856118ea565b93506119318185602086016117fe565b61193a816118fb565b840191505092915050565b6000602082019050818103600083015261195f818461190c565b905092915050565b600080fd5b611975826118fb565b810181811067ffffffffffffffff82111715611994576119936114bf565b5b80604052505050565b60006119a761117c565b90506119b3828261196c565b919050565b6119c1816112ae565b81146119cc57600080fd5b50565b6000815190506119de816119b8565b92915050565b6000604082840312156119fa576119f9611967565b5b611a04604061199d565b90506000611a14848285016119cf565b6000830152506020611a28848285016119cf565b60208301525092915050565b600060408284031215611a4a57611a49611186565b5b6000611a58848285016119e4565b91505092915050565b6000611a6c82611225565b9150611a7783611225565b9250828202611a8581611225565b91508282048414831517611a9c57611a9b6115c9565b5b5092915050565b6000611aae82611225565b9150611ab983611225565b9250828201905080821115611ad157611ad06115c9565b5b92915050565b611ae0816112ae565b82525050565b604082016000820151611afc6000850182611ad7565b506020820151611b0f6020850182611ad7565b50505050565b60006060820190508181036000830152611b2f818561190c565b9050611b3e6020830184611ae6565b9392505050565b6000611b5082611789565b9150611b5c8284611828565b915081905092915050565b6000611b7282611789565b9150611b7e8285611828565b9150611b8a8284611828565b91508190509392505050565b6000611ba28284611828565b915081905092915050565b6000611bb98286611828565b9150611bc58285611828565b9150611bd18284611828565b9150819050949350505050565b600060ff82169050919050565b60008160f81b9050919050565b6000611c0382611beb565b9050919050565b611c1b611c1682611bde565b611bf8565b82525050565b6000611c2d8284611c0a565b60018201915081905092915050565b6000611c4782611225565b91507fffffffffffffffffffffffffffffffffffffffffffffffffffffffffffffffff8203611c7957611c786115c9565b5b600182019050919050565b6000611c8f82611225565b9150611c9a83611225565b9250828203905081811115611cb257611cb16115c9565b5b92915050565b6000611cc3826112ae565b9150611cce836112ae565b9250828201905067ffffffffffffffff811115611cee57611ced6115c9565b5b9291505056fea26469706673582212206efa39c02bbbd171f43893bbe938950b984fc1380119589267609abb60ef0c0f64736f6c634300081c0033",
  "linkReferences": {},
  "deployedLinkReferences": {}
}